:100000000C9434000C943E000C943E000C943E0082
:100010000C943E000C943E000C943E000C943E0068
:100020000C943E000C943E000C943E000C943E0058
:100030000C943E000C943E000C943E000C943E0048
:100040000C943E000C943E000C943E000C943E0038
:100050000C943E000C943E000C943E000C943E0028
:100060000C943E000C943E0011241FBECFEFD8E04C
:10007000DEBFCDBF0E9470000C947F000C94000086
:1000800085B1806285B985B18F7E85B92FEF8BE709
:1000900092E9215080409040E1F700C000000895AF
:1000A00085B18F7D85B985B18F7E85B92FEF83EDC1
:1000B00090E3215080409040E1F700C00000089597
:1000C00085B18F7D85B985B1806185B92FEF8BE7CB
:1000D00092E9215080409040E1F700C0000008956F
:1000E00084B1806284B984B1806184B90E94400087
:1000F0000E9450000E9460000E945000F7CFF894C8
:02010000FFCF2F
:00000001FF
