S016000041746D6F73747261636B5F434C492E73726563BE
S11300000C9434000C9451000C9451000C94510045
S11300100C9451000C9451000C9451000C94510018
S11300200C9451000C9451000C9451000C94510008
S11300300C9451000C9451000C9451000C945100F8
S11300400C9451000C9451000C94B2050C94510082
S11300500C9451000C9451000C9451000C945100D8
S11300600C9451000C94510011241FBECFEFD8E022
S1130070DEBFCDBF11E0A0E0B1E0E4E5F2E102C0F3
S113008005900D92A63BB107D9F722E0A6EBB1E0AB
S113009001C01D92A435B207E1F70E94E2050C9459
S11300A028090C94000085B18B7F85B98AEF8EBD39
S11300B00DB407FEFDCF8EB51EBC0DB407FEFDCFFB
S11300C08EB590E0A0E0B0E08093FC019093FD0138
S11300D0A093FE01B093FF0185B1846085B90895B2
S11300E085B18B7F85B98BEF8EBD0DB407FEFDCF37
S11300F08EB51EBC0DB407FEFDCF8EB590E0A0E01A
S1130100B0E08093F6019093F701A093F801B093C7
S1130110F90185B1846085B9089585B18B7F85B96E
S11301208CEF8EBD0DB407FEFDCF8EB51EBC0DB495
S113013007FEFDCF8EB590E0A0E0B0E08093D4013F
S11301409093D501A093D601B093D70185B1846073
S113015085B908950E9453000E9470000E948D008A
S11301608091FC019091FD01A091FE01B091FF01ED
S1130170AC01BD01032E3CE0440F551F661F771FE1
S11301803A95D1F7302D8091F6019091F701A09125
S1130190F801B091F901880F991FAA1FBB1F880F9E
S11301A0991FAA1FBB1F880F991FAA1FBB1F880F67
S11301B0991FAA1FBB1F842B952BA62BB72B4091ED
S11301C0D4015091D5016091D6017091D701689402
S11301D013F876956795579547951694D1F7842B20
S11301E0952BA62BB72B8093BA019093BB01A093B8
S11301F0BC01B093BD01089585B18B7F85B984E7B7
S11302008EBD0DB407FEFDCF8EB587E28EBD0DB455
S113021007FEFDCF8EB585B1846085B985B18B7F2E
S113022085B984EF8EBD0DB407FEFDCF8EB51EBC1F
S11302300DB407FEFDCF8EB585B1846085B90895F0
S11302404F925F926F927F928F929F92AF92BF92E2
S1130250CF92DF92EF92FF926091BA017091BB014D
S11302608091BC019091BD010E94BF076B017C018C
S11302706093CA017093CB018093CC019093CD011C
S113028020E030E040E858E30E9471084B015C0133
S11302906091C4017091C50180E090E00E94BF07A5
S11302A020E030E040E85AE30E9471089B01AC0171
S11302B0C501B4010E94A5064B015C016091D00107
S11302C07091D101072E000C880B990B0E94C10775
S11302D02B013C019B01AC01C501B4010E947108D2
S11302E04B015C016093DC017093DD018093DE01BE
S11302F09093DF0120E030E040E057E3C701B6010E
S11303000E9471086B017C0120E030E040E059E379
S1130310C301B2010E9471089B01AC01C701B6017F
S11303200E94A5066B017C01609126027091270250
S1130330072E000C880B990B0E94C107A701960198
S11303400E9471089B01AC0160930A0270930B0236
S113035080930C0290930D02C501B4010E94A6067D
S113036060932E0270932F02809330029093310297
S113037020E030E040EA55E40E9417076093EA0168
S11303807093EB018093EC019093ED018AE491E08A
S11303900E9418066091EA017091EB018091EC01D2
S11303A09091ED0142E00E94420688E691E00E94AD
S11303B01806FF90EF90DF90CF90BF90AF909F9082
S11303C08F907F906F905F904F9008950E94FC00F3
S11303D085B18B7F85B987EF8EBD0DB407FEFDCF48
S11303E08EB51EBC0DB407FEFDCF8EB590E0A0E027
S11303F0B0E08093D8019093D901A093DA01B0932F
S1130400DB011EBC0DB407FEFDCF8EB590E0A0E06D
S1130410B0E08093E6019093E701A093E801B093E4
S1130420E9011EBC0DB407FEFDCF8EB590E0A0E03F
S1130430B0E08093E0019093E101A093E201B093D6
S1130440E30185B1846085B98091D8019091D90187
S1130450A091DA01B091DB01AC01BD01032E3CE0B7
S1130460440F551F661F771F3A95D1F7302D8091A1
S1130470E6019091E701A091E801B091E901880FAC
S1130480991FAA1FBB1F880F991FAA1FBB1F880F84
S1130490991FAA1FBB1F880F991FAA1FBB1F842B5C
S11304A0952BA62BB72B4091E0015091E10160916F
S11304B0E2017091E301689413F876956795579576
S11304C047951694D1F7842B952BA62BB72B8093A5
S11304D0B6019093B701A093B801B093B901089500
S11304E085B18B7F85B988E88EBD0DB407FEFDCF3D
S11304F08EB51EBC0DB407FEFDCF8EB590E0909373
S1130500C1018093C0011EBC0DB407FEFDCF8EB5A2
S113051090E090931702809316021EBC0DB407FE60
S1130520FDCF8EB590E090930502809304021EBC2B
S11305300DB407FEFDCF8EB590E090931D0280931D
S11305401C021EBC0DB407FEFDCF8EB590E0909347
S1130550D3018093D2011EBC0DB407FEFDCF8EB52E
S113056090E090932B0280932A021EBC0DB407FEE8
S1130570FDCF8EB590E090932302809322021EBC9F
S11305800DB407FEFDCF8EB590E090931F028093CB
S11305901E021EBC0DB407FEFDCF8EB590E09093F5
S11305A00F0280930E021EBC0DB407FEFDCF8EB564
S11305B090E090930702809306021EBC0DB407FEE0
S11305C0FDCF8EB590E09093C9018093C8011EBC05
S11305D00DB407FEFDCF8EB590E09093F5018093A6
S11305E0F4011EBC0DB407FEFDCF8EB590E09093D0
S11305F0C7018093C6011EBC0DB407FEFDCF8EB5A6
S113060090E09093E5018093E4011EBC0DB407FED5
S1130610FDCF8EB590E090932102809320021EBC02
S11306200DB407FEFDCF8EB590E090932D0280931C
S11306302C021EBC0DB407FEFDCF8EB590E0909346
S1130640CF018093CE011EBC0DB407FEFDCF8EB545
S113065090E090930302809302021EBC0DB407FE47
S1130660FDCF8EB590E09093FB018093FA011EBC00
S11306700DB407FEFDCF8EB590E0909333028093C6
S113068032021EBC0DB407FEFDCF8EB590E09093F0
S11306900902809308021EBC0DB407FEFDCF8EB57F
S11306A090E090931902809318021EBC0DB407FECB
S11306B0FDCF8EB590E090931B0280931A021EBC6E
S11306C00DB407FEFDCF8EB590E09093EF018093BB
S11306D0EE0140E050E0509116022091C0013091AB
S11306E0C101242B352B3093C5012093C4015091B3
S11306F01C022091040230910502242B352B3093E7
S1130700D1012093D00150912A022091D20130913D
S1130710D301242B352B309327022093260240E06B
S113072050E050911E022091220230912302242B8A
S1130730352B309311022093100240E050E0509189
S1130740060220910E0230910F02242B352B309398
S1130750F1012093F00140E050E05091F401209128
S1130760C8013091C901242B352B309313022093F7
S1130770120240E050E05091E4012091C601309112
S1130780C701242B352B3093F3012093F20140E071
S113079050E050912C022091200230912102242B10
S11307A0352B309301022093000240E050E0509139
S11307B002022091CE013091CF01242B352B3093AE
S11307C029022093280240E050E050913202209107
S11307D0FA013091FB01242B352B3093C301209374
S11307E0C20140E050E0509118022091080230917B
S11307F00902242B352B3093150220931402982FD1
S1130800882720911A0230911B02822B932B9093FC
S113081025028093240208954F925F926F927F92F3
S11308208F929F92AF92BF92CF92DF92EF92FF92FC
S113083060912E0270912F028091300290913102CA
S113084020E030E040E05FE30E94710820E030E007
S11308504AE757E40E94A5066B017C0120E030E0E2
S1130860A9010E9471084B015C01609128027091FA
S11308702902072E000C880B990B0E94C1079B01CB
S1130880AC01C501B4010E94710820E030E040E0F1
S113089058E30E9471089B01AC01C701B6010E9494
S11308A071084B015C016091000270910102072EF6
S11308B0000C880B990B0E94C1079B01AC01C50178
S11308C0B4010E9471089B01AC010E94A60620E0BD
S11308D030E040E85EE30E9471084B015C016091E6
S11308E0F2017091F301072E000C880B990B0E9402
S11308F0C10720E030E040E857E40E9471089B0102
S1130900AC01C501B4010E94A6064B015C016091D3
S1130910120270911302072E000C880B990B0E948F
S1130920C1079B01AC01C701B6010E9471089B017C
S1130930AC01C701B6010E94710820E030E040E03C
S113094056E30E9471082B013C016091F001709103
S1130950F101072E000C880B990B0E94C1079B0123
S1130960AC01C701B6010E9471089B01AC01C3012F
S1130970B2010E94A60620E030E040E056E30E9467
S1130980710820E030E040E058E30E94710820E064
S113099030E040E85FE30E94A6066B017C016091B1
S11309A010027091110280E090E00E94BF079B0149
S11309B0AC01C701B6010E9471086B017C01609112
S11309C0B6017091B7018091B8019091B9010E946C
S11309D0BF079B01AC0160E070E080E899E40E94ED
S11309E0A5062B013C0120E030E040E859E3C501B5
S11309F0B4010E9471089B01AC01C301B2010E94C1
S1130A00A50620E030E543EC55E40E947108A701F7
S1130A1096010E9417076B017C016091240270917A
S1130A202502072E000C880B990B0E94C1079B011D
S1130A30AC01C701B6010E9471089B01AC01C7015A
S1130A40B6010E94710820E030E040E050E30E94CB
S1130A5071084B015C016091140270911502072E1C
S1130A60000C880B990B0E94C1079B01AC01C701C4
S1130A70B6010E94710820E030E040E058E30E9493
S1130A8071089B01AC01C501B4010E94A6064B018B
S1130A905C016091C2017091C301072E000C880BA8
S1130AA0990B0E94C1079B01AC01C501B4010E94CE
S1130AB0A60620E030E040E85DE30E9471089B0157
S1130AC0AC01C701B6010E94A60620E030E048EC64
S1130AD052E40E9417076B017C018BE691E00E94AF
S1130AE0180642E0C701B6010E9442068CE791E075
S1130AF00E941806FF90EF90DF90CF90BF90AF90C8
S1130B009F908F907F906F905F904F90089561E8D1
S1130B1071E084E392E00E94DE08892B59F40E947C
S1130B20FC000E94AA000E9470020E9420010E9400
S1130B30E601089562E971E084E392E00E94DE0830
S1130B40892B59F40E94FC000E94AA000E947002A2
S1130B500E94E6010E940C04089580EA91E00E943C
S1130B60180608951F920F920FB60F9211248F93B7
S1130B709F93EF93FF938091C6008D3011F08A30DC
S1130B8061F4E091BF01F0E0EC5CFD4F1082109243
S1130B90BF0181E08093BE010CC0E091BF01EF3141
S1130BA040F491E09E0F9093BF01F0E0EC5CFD4FA8
S1130BB08083FF91EF919F918F910F900FBE0F90C3
S1130BC01F9018950E9405060E94F0057894809164
S1130BD0BE018823E1F31092BE010E948705F7CF7E
S1130BE084B18C6284B984B18F7E84B985B1846008
S1130BF085B98AB188608AB981E58CBD8FE39CE9A7
S1130C000197F1F700C0000008951092C50087E62F
S1130C108093C40088E98093C10086E08093C20079
S1130C2008959091C00095FFFCCF8093C60008956D
S1130C30CF93DF93EC0103C021960E9411068881B3
S1130C408111FACFDF91CF910895CF93DF93CDB780
S1130C50DEB72C970FB6F894DEBF0FBECDBF2AE0E7
S1130C60AE014F5F5F4F0E94E708CE0101960E94DC
S1130C7018062C960FB6F894DEBF0FBECDBFDF91D9
S1130C80CF9108958F929F92AF92BF92CF92DF92AD
S1130C90EF92FF92CF93DF936B017C01D42F0E94DC
S1130CA089074B01770FAA08BB08C501B4010E944C
S1130CB0C1079B01AC01C701B6010E94A5066B01E7
S1130CC07C01C501B4010E9425068EE20E94110632
S1130CD020E030E0A901C701B6010E941207882371
S1130CE024F4F7FAF094F7F8F094C0E021C020E07F
S1130CF030E040E251E4C701B6010E9471084B01A3
S1130D005C010E9489076B017C0180E38C0D0E94C9
S1130D101106B601DD0C880B990B0E94C1079B01DB
S1130D20AC01C501B4010E94A5066B017C01CF5F33
S1130D30CD17E8F2DF91CF91FF90EF90DF90CF9045
S1130D40BF90AF909F908F9008955058BB27AA27CB
S1130D500E94BD060C9437080E94290838F00E94AE
S1130D60300820F039F49F3F19F426F40C94260837
S1130D700EF4E095E7FB0C942008E92F0E94480844
S1130D8058F3BA17620773078407950720F079F4BC
S1130D90A6F50C946A080EF4E0950B2EBA2FA02D3C
S1130DA00B01B90190010C01CA01A0011124FF2714
S1130DB0591B99F0593F50F4503E68F11A16F0400F
S1130DC0A22F232F342F4427585FF3CF469537950E
S1130DD02795A795F0405395C9F77EF41F16BA0BD3
S1130DE0620B730B840BBAF09150A1F0FF0FBB1F81
S1130DF0661F771F881FC2F70EC0BA0F621F731FCA
S1130E00841F48F4879577956795B795F7959E3F26
S1130E1008F0B0CF9395880F08F09927EE0F9795B7
S1130E20879508950E94FC0708F481E008950E94C4
S1130E302B070C9437080E94300858F00E942908A8
S1130E4040F029F45F3F29F00C94200851110C94D0
S1130E506B080C9426080E94480868F39923B1F3A0
S1130E60552391F3951B550BBB27AA2762177307CC
S1130E70840738F09F5F5F4F220F331F441FAA1F60
S1130E80A9F335D00E2E3AF0E0E832D0915050401C
S1130E90E695001CCAF72BD0FE2F29D0660F771FCA
S1130EA0881FBB1F261737074807AB07B0E809F0B0
S1130EB0BB0B802DBF01FF2793585F4F3AF09E3F35
S1130EC0510578F00C9420080C946B085F3FE4F310
S1130ED0983ED4F3869577956795B795F7959F5F78
S1130EE0C9F7880F911D9695879597F90895E1E0C4
S1130EF0660F771F881FBB1F621773078407BA0723
S1130F0020F0621B730B840BBA0BEE1F88F7E0957D
S1130F1008950E9490076894B1110C946B08089589
S1130F200E94500888F09F5798F0B92F9927B7511D
S1130F30B0F0E1F0660F771F881F991F1AF0BA9579
S1130F40C9F714C0B13091F00E946A08B1E0089565
S1130F500C946A08672F782F8827B85F39F0B93F57
S1130F60CCF3869577956795B395D9F73EF490952C
S1130F708095709561957F4F8F4F9F4F0895E894AA
S1130F8009C097FB3EF490958095709561957F4FCD
S1130F908F4F9F4F9923A9F0F92F96E9BB2793957B
S1130FA0F695879577956795B795F111F8CFFAF48B
S1130FB0BB0F11F460FF1BC06F5F7F4F8F4F9F4FBC
S1130FC016C0882311F096E911C0772321F09EE81A
S1130FD0872F762F05C0662371F096E8862F70E080
S1130FE060E02AF09A95660F771F881FDAF7880F5A
S1130FF09695879597F90895990F0008550FAA0BB0
S1131000E0E8FEEF16161706E807F907C0F0121617
S11310101306E407F50798F0621B730B840B950B1A
S113102039F40A2661F0232B242B252B21F408956F
S11310300A2609F4A140A6958FEF811D811D08950C
S113104097F99F6780E870E060E008959FEF80EC77
S1131050089500240A94161617061806090608951A
S113106000240A9412161306140605060895092E80
S11310700394000C11F4882352F0BB0F40F4BF2BEF
S113108011F460FF04C06F5F7F4F8F4F9F4F08952F
S113109057FD9058440F551F59F05F3F71F0479525
S11310A0880F97FB991F61F09F3F79F0879508950A
S11310B0121613061406551FF2CF4695F1DF08C029
S11310C0161617061806991FF1CF86957105610546
S11310D008940895E894BB2766277727CB0197F9EE
S11310E008950E9484080C9437080E94290838F057
S11310F00E94300820F0952311F00C9420080C94E1
S1131100260811240C946B080E94480870F3959FDC
S1131110C1F3950F50E0551F629FF001729FBB27EA
S1131120F00DB11D639FAA27F00DB11DAA1F649F86
S11311306627B00DA11D661F829F2227B00DA11D39
S1131140621F739FB00DA11D621F839FA00D611DBF
S1131150221F749F3327A00D611D231F849F600DE0
S1131160211D822F762F6A2F11249F5750409AF009
S1131170F1F088234AF0EE0FFF1FBB1F661F771F95
S1131180881F91505040A9F79E3F510580F00C9460
S113119020080C946B085F3FE4F3983ED4F38695E3
S11311A077956795B795F795E7959F5FC1F7FE2B00
S11311B0880F911D9695879597F90895FB01DC0199
S11311C08D91019080190110D9F3990B0895BB27D3
S11311D02A3051F4992342F4BDE29095809570959C
S11311E061957F4F8F4F9F4F0C94F708BB27FA01EF
S11311F0A62F6217710581059105330B30FB66F04C
S1131200AA27660F771F881F991FAA1FA21710F01D
S1131210A21B63953850A9F7A05DAA3308F0A95D15
S1131220A19336F7B111B1931082CA010C94180935
S1131230DC01FC01672F71917723E1F7329704C039
S11312407C916D9370836291AE17BF07C8F30895C4
S1071250F894FFCF3C
S11312540A41746D6F73547261636B206279204127
S11312646E656573204B6F6B6164616E2076312EFD
S11312743000436869702049443A20006469675F18
S113128454313A20000D0A006469675F54323A20ED
S1131294006469675F54333A20000A5265616C2024
S11312A474696D6520726F6F6D2074656D706572FD
S11312B461747572653A20002043000A41746D2EEE
S11312C42050726573737572653A2000206850610A
S11312D400726561642074656D7065726174757201
S11312E4650072656164207072657373757265005C
S11312F40A456E7465722076616C696420636F6D4F
S10913046D616E6400003F
S9030000FC
