:100000000C9434000C943E000C943E000C943E0082
:100010000C943E000C943E000C943E000C943E0068
:100020000C943E000C943E000C943E000C943E0058
:100030000C943E000C943E000C943E000C943E0048
:100040000C943E000C943E000C943E000C943E0038
:100050000C943E000C943E000C943E000C943E0028
:100060000C943E000C943E0011241FBECFEFD8E04C
:10007000DEBFCDBF0E9469000C9480000C9400008C
:1000800007C08FE99FE00197F1F700C00000C901A8
:100090009C0121503109892BA1F7089525B12062D7
:1000A00025B925B12F7E25B90E944000089525B1BC
:1000B0002F7D25B925B12F7E25B90E9440000895D6
:1000C00025B12F7D25B925B1206125B90E944000B9
:1000D000089584B1806284B984B1806184B988E86C
:1000E00093E10E944E0088EE93E00E94570088E85A
:1000F00093E10E94600088EE93E00E945700EFCFEA
:04010000F894FFCFA1
:00000001FF
