S0240000327365635F64656C61795F6374635F7072657363616C6172313032342E73726563A9
S11300000C9434000C943E000C943E000C943E007E
S11300100C943E000C943E000C943E000C943E0064
S11300200C943E000C943E000C943E000C943E0054
S11300300C943E000C943E000C943E000C943E0044
S11300400C943E000C943E000C943E000C943E0034
S11300500C943E000C943E000C943E000C943E0024
S11300600C943E000C943E0011241FBECFEFD8E048
S1130070DEBFCDBF0E945D000C9467000C940000AD
S113008016BC84B5816084BD85B5816085BD85B5A8
S1130090846085BD85B3826085BB88EC87BD20E024
S11300A030E007C0A99BFECF85B3826085BB2F5F7C
S11300B03F4F2A373105B4F3089584B1806284B97F
S11300C095B180E2892785B90E944000F9CFF89460
S10500D0FFCF5C
S9030000FC
