S013000074776F5F737769636865732E7372656362
S11300000C9434000C943E000C943E000C943E007E
S11300100C943E000C943E000C943E000C943E0064
S11300200C943E000C943E000C943E000C943E0054
S11300300C943E000C943E000C943E000C943E0044
S11300400C943E000C943E000C943E000C943E0034
S11300500C943E000C943E000C943E000C943E0024
S11300600C943E000C943E0011241FBECFEFD8E048
S1130070DEBFCDBF0E9440000C9451000C940000E0
S113008080E387B91AB881E88BB9489903C080E244
S113009088B9FBCF4F9903C080E188B9F6CF18B86F
S10900A0F4CFF894FFCF39
S9030000FC
