S0130000626D703238305F74656D702E7372656323
S11300000C9434000C9451000C9451000C94510045
S11300100C9451000C9451000C9451000C94510018
S11300200C9451000C9451000C9451000C94510008
S11300300C9451000C9451000C9451000C945100F8
S11300400C9451000C9451000C9451000C945100E8
S11300500C9451000C9451000C9451000C945100D8
S11300600C9451000C94510011241FBECFEFD8E022
S1130070DEBFCDBF11E0A0E0B1E0E6E9F4E002C0EC
S113008005900D92A234B107D9F721E0A2E4B1E0C2
S113009001C01D92A235B207E1F70E9461010C94E0
S11300A049020C940000CF9385B18B7F85B980ED14
S11300B08EBD0DB407FEFDCF8EB51EBC0DB407FE7C
S11300C0FDCFCEB585B1846085B98FE39CE90197F6
S11300D0F1F700C0000080E091E00E94A1018C2FA4
S11300E00E94AE01CF91089585B18B7F85B98AEFC7
S11300F08EBD0DB407FEFDCF8EB51EBC0DB407FE3C
S1130100FDCF8EB590E0A0E0B0E080934E019093D7
S11301104F01A0935001B093510185B1846085B91A
S11301208FE39CE90197F1F700C000008BE091E0B8
S11301300E94A10160914E0170914F018091500184
S1130140909151010E94EB01089585B18B7F85B98F
S11301508BEF8EBD0DB407FEFDCF8EB51EBC0DB466
S113016007FEFDCF8EB590E0A0E0B0E080934A0199
S113017090934B01A0934C01B0934D0185B18460E1
S113018085B98FE39CE90197F1F700C0000082E193
S113019091E00E94A10160914A0170914B0180910C
S11301A04C0190914D010E94EB01089585B18B7F24
S11301B085B98CEF8EBD0DB407FEFDCF8EB51EBC88
S11301C00DB407FEFDCF8EB590E0A0E0B0E08093C3
S11301D0460190934701A0934801B093490185B12A
S11301E0846085B98FE39CE90197F1F700C00000B2
S11301F089E191E00E94A10160914601709147015B
S113020080914801909149010E94EB0108958091E9
S11302104E0190914F01A0915001B0915101AC0158
S1130220BD01032E3CE0440F551F661F771F3A950E
S1130230D1F7302D80914A0190914B01A0914C014E
S1130240B0914D01880F991FAA1FBB1F880F991FDA
S1130250AA1FBB1F880F991FAA1FBB1F880F991FB6
S1130260AA1FBB1F842B952BA62BB72B40914601AD
S1130270509147016091480170914901689413F8C5
S113028076956795579547951694D1F7842B952BBA
S1130290A62BB72B8093420190934301A093440172
S11302A0B093450181E291E00E94A1016091420175
S11302B07091430180914401909145010E94EB01AA
S11302C008950E9479010E948E010E9453000E94A9
S11302D074000E94A5000E94D6000E9407012FEF1F
S11302E083ED90E3215080409040E1F700C000008E
S11302F0ECCF84B18C6284B984B18F7E84B985B12A
S1130300846085B98AB188608AB981E58CBD8FE340
S11303109CE90197F1F700C0000008951092C50010
S113032087E68093C40088E08093C10086E08093D0
S1130330C20008959091C00095FFFCCF8093C60041
S11303400895CF93DF93EC0103C021960E949A0194
S113035088818111FACFDF91CF910895CF93DF93F4
S1130360CDB7DEB766970FB6F894DEBF0FBECDBF2C
S113037091E1E0E3F1E0DE01119601900D929A958E
S1130380E1F7982F92959F70E1E0F0E0EC0FFD1FEC
S1130390E90FF11D90819A8B8F70E1E0F0E0EC0F92
S11303A0FD1FE80FF11D80818B8B8DE08C8B8AE023
S11303B08D8B1E8A8DE291E00E94A101CE014296AE
S11303C00E94A10166960FB6F894DEBF0FBECDBFA2
S11303D0DF91CF910895CF93DF93CDB7DEB72C97FC
S11303E00FB6F894DEBF0FBECDBF2AE0AE014F5F5B
S11303F05F4F0E940802CE0101960E94A1012C9633
S11304000FB6F894DEBF0FBECDBFDF91CF91089534
S1130410BB272A3051F4992342F4BDE2909580958C
S1130420709561957F4F8F4F9F4F0C941802BB2797
S1130430FA01A62F6217710581059105330B30FB74
S113044066F0AA27660F771F881F991FAA1FA21795
S113045010F0A21B63953850A9F7A05DAA3308F0E9
S1130460A95DA19336F7B111B1931082CA010C941E
S11304703902DC01FC01672F71917723E1F7329790
S113048004C07C916D9370836291AE17BF07C8F36B
S10904900895F894FFCF6B
S11304960A436869702049443A20000A4D53423A97
S11304A620000A4C53423A20000A784C53423A2020
S11304B6000A5261772054656D703A200030780046
S11304C63031323334353637383941424344454680
S10504D6000020
S9030000FC
