:100000000C9462000C948A000C948A000C948A0070
:100010000C948A000C948A000C948A000C948A0038
:100020000C948A000C948A000C948A000C9434027C
:100030000C948A000C948A000C948A000C948A0018
:100040000C94EA010C948A000C948A000C948A00A7
:100050000C948A000C948A000C948A000C948A00F8
:100060000C948A000C948A000000000023002600F3
:10007000290000000000240027002A0000000000E2
:10008000250028002B0004040404040404040202D4
:100090000202020203030303030301020408102007
:1000A0004080010204081020010204081020000012
:1000B0000008000201000003040700000000000027
:1000C0000000FA0311241FBECFEFD8E0DEBFCDBF82
:1000D00011E0A0E0B1E0E8E1F9E002C005900D9286
:1000E000A030B107D9F721E0A0E0B1E001C01D9236
:1000F000A433B207E1F710E0C2E6D0E004C02197D4
:10010000FE010E948404C136D107C9F70E94F002A3
:100110000C948A040C940000CF92DF92EF92FF922D
:10012000DC01A03282E0B807D4F5A53BB10514F09C
:10013000A4EBB0E04091320128E830E0241B310903
:1001400047FD3395220F331F220F331F6901330FF1
:10015000EE08FF084091330128E532E0241B310905
:1001600047FD3395220F331F220F331F032E000C40
:10017000440B550B2C193D094E095F09B7FF02C00E
:10018000B0E0A0E00E943F0424EB30E040E050E00B
:100190000E941504C20ED31EE41EF51ED601E09186
:1001A0003101EC3080F52091320188E890E0821B2B
:1001B000910927FD9395880F991F880F991FA817FC
:1001C000B90784F02091330188E592E0821B910900
:1001D00027FD9395880F991F880F991FA817B907B6
:1001E0000CF4CD010297880F991F4FB7F8942E2F6A
:1001F00030E0F901EE0FFF1FE20FF31FE35FFE4F48
:10020000928381834FBFFF90EF90DF90CF9008954E
:10021000833081F028F4813099F08230A9F008957C
:100220008730A9F08830C9F08430B1F48091800023
:100230008F7D03C0809180008F7780938000089528
:1002400084B58F7784BD089584B58F7DFBCF809171
:10025000B0008F778093B00008958091B0008F7DBB
:10026000F9CF1F93CF93DF93282F30E0F901E255A8
:10027000FF4F8491F901E656FF4FD491F901EA57F7
:10028000FF4FC491CC23A9F0162F81110E940801C1
:10029000EC2FF0E0EE0FFF1FE458FF4FA591B49153
:1002A0008FB7F894EC91111108C0D095DE23DC9340
:1002B0008FBFDF91CF911F910895DE2BF8CFCF93A1
:1002C000DF9390E0FC01E656FF4F24918A579F4F41
:1002D000FC0184918823D1F090E0880F991FFC01E4
:1002E000EE58FF4FA591B491FC01E458FF4FC59122
:1002F000D49161110EC09FB7F8948C91E22FE095D4
:100300008E238C932881E223E8839FBFDF91CF91D6
:1003100008958FB7F894EC91E22BEC938FBFF6CF52
:100320003FB7F8948091090190910A01A0910B01C7
:10033000B0910C0126B5A89B05C02F3F19F001967E
:10034000A11DB11D3FBFBA2FA92F982F8827BC012F
:10035000CD01620F711D811D911D42E0660F771F57
:10036000881F991F4A95D1F708958F929F92AF9257
:10037000BF92CF92DF92EF92FF920E9490014B01C9
:100380005C018FE0C82ED12CE12CF12C0E94900151
:10039000681979098A099B09683E734081059105AE
:1003A000A8F321E0C21AD108E108F10888EE880E0E
:1003B00083E0981EA11CB11CC114D104E104F10416
:1003C00029F7FF90EF90DF90CF90BF90AF909F9074
:1003D0008F9008951F920F920FB60F9211242F93B2
:1003E0003F938F939F93AF93BF938091050190911B
:1003F0000601A0910701B09108013091040123E0AA
:10040000230F2D3758F50196A11DB11D209304012E
:100410008093050190930601A0930701B093080112
:100420008091090190910A01A0910B01B0910C01FA
:100430000196A11DB11D8093090190930A01A0931B
:100440000B01B0930C01BF91AF919F918F913F91A0
:100450002F910F900FBE0F901F90189526E8230F35
:100460000296A11DB11DD2CF1F920F920FB60F920F
:1004700011242F933F934F935F936F937F938F93A9
:100480009F93AF93BF93CF93DF93EF93FF938091AD
:100490000101C0910001D0E087FF24C010928500C7
:1004A00010928400809101018F5F809301018091FF
:1004B0000101082E000C990B8C179D0724F48091E4
:1004C00001018C30C4F180918400909185000496E4
:1004D00080349C4908F47AC0809184009091850012
:1004E000049676C080910101082E000C990B8C17A0
:1004F0009D07C4F6E09101018E2FEE0F990BFC01D0
:10050000EE0FFF1FE80FF91FE35FFE4F808186FFAC
:10051000C9CFE09101018E2FEE0F990BFC01EE0F78
:10052000FF1FE80FF91FE35FFE4F808160E08F73CC
:100530000E943101B7CF2091840030918500E09175
:1005400001018E2FEE0F990BFC01EE0FFF1FE80F3C
:10055000F91FE35FFE4F81819281820F931F909379
:10056000890080938800E09101018E2FEE0F990B96
:10057000FC01EE0FFF1FE80FF91FE35FFE4F8081C4
:1005800086FF11C0E09101018E2FEE0F990BFC0147
:10059000EE0FFF1FE80FF91FE35FFE4F808161E060
:1005A0008F730E943101FF91EF91DF91CF91BF9145
:1005B000AF919F918F917F916F915F914F913F91FB
:1005C0002F910F900FBE0F901F90189580E49CE91B
:1005D00090938900809388008FEF80930101E3CF8F
:1005E000789484B5826084BD84B5816084BD85B50E
:1005F000826085BD85B5816085BD80916E0081601A
:1006000080936E00109281008091810082608093BF
:1006100081008091810081608093810080918000C1
:100620008160809380008091B10084608093B100EC
:100630008091B00081608093B00080917A008460E6
:1006400080937A0080917A00826080937A00809112
:100650007A00816080937A0080917A00806880932C
:100660007A001092C10061E08DE00E945F0160E0BD
:1006700082E00E945F01809131018C3008F051C00E
:1006800061E089E00E945F0180913101282F30E014
:10069000F901EE0FFF1FE20FF31FE35FFE4F9081A2
:1006A000907C9960908310923201109233012CE07B
:1006B000622F0E947804829FB001112430E020E074
:1006C000AB01420F531FFA01EE0FFF1FE40FF51F9E
:1006D000E35FFE4F908196FD16C02F5F3F4F2C3099
:1006E000310571F781110FC01092800082E0809374
:1006F00081001092850010928400B19A80916F0061
:10070000826080936F00E09131018E2F90E0FC01B8
:10071000EE0FFF1FE80FF91FE35FFE4F808180643B
:100720008083C0EBD0E00CE910E098E8E92E90E07F
:10073000F92E20E0C22E20E0D22E34EBA32EB12CD5
:10074000FE018491F8019490F7018490882009F4C7
:1007500046C081110E940801E82DF0E0EE0FFF1F56
:10076000E859FF4FA591B4918C919822C1F161E0B5
:100770008DE00E94310110920301109202018090DD
:10078000020190900301F5EB8F1691046CF4C40103
:100790000E948C000E94B5018FEF881A980A9092EF
:1007A000030180920201EBCFB0920301A0920201FB
:1007B000809002019090030197FC15C0C4010E9433
:1007C0008C000E94B50160E08DE00E943101E1E003
:1007D0008E1A91089092030180920201E9CF60E0A5
:1007E0008DE00E943101C114D10409F4A9CF0E9407
:1007F0000000A6CF809100018C3098F491E0980F12
:10080000909300018093310190E0FC01EE0FFF1FF7
:10081000E80FF91FE35FFE4F88EB9BE09283818333
:1008200008958FEF809331010895052E97FB1EF4F4
:1008300000940E942C0457FD07D00E94470407FC37
:1008400003D04EF40C942C0450954095309521958E
:100850003F4F4F4F5F4F08959095809570956195EC
:100860007F4F8F4F9F4F08950E946904A59F900D61
:10087000B49F900DA49F800D911D11240895B7FF82
:100880000C9434040E943404821B930B0895A1E25B
:100890001A2EAA1BBB1BFD010DC0AA1FBB1FEE1FFA
:1008A000FF1FA217B307E407F50720F0A21BB30B45
:1008B000E40BF50B661F771F881F991F1A9469F7C1
:1008C00060957095809590959B01AC01BD01CF011D
:1008D0000895A29FB001B39FC001A39F700D811D19
:1008E0001124911DB29F700D811D1124911D089539
:1008F000991B79E004C0991F961708F0961B881F72
:100900007A95C9F780950895EE0FFF1F0590F49131
:08091000E02D0994F894FFCFDB
:00000001FF
