:100000000C9434000C9451000C9451000C94510049
:100010000C9451000C9451000C9451000C9451001C
:100020000C9451000C9451000C9451000C9451000C
:100030000C9451000C9451000C9451000C945100FC
:100040000C9451000C9451000C9451000C945100EC
:100050000C9451000C9451000C9451000C945100DC
:100060000C9451000C94510011241FBECFEFD8E026
:10007000DEBFCDBF13E0A0E0B1E0ECE9F8E102C0E3
:1000800005900D92A03FB107D9F724E0A0EFB3E0AF
:1000900001C01D92AE3BB207E1F70E9470060C94BE
:1000A0004C0C0C94000085B18B7F85B98AEF8EBD16
:1000B0000DB407FEFDCF8EB51EBC0DB407FEFDCFFF
:1000C0008EB590E0A0E0B0E080935B0490935C0478
:1000D000A0935D04B0935E0485B1846085B90895F2
:1000E00085B18B7F85B98BEF8EBD0DB407FEFDCF3B
:1000F0008EB51EBC0DB407FEFDCF8EB590E0A0E01E
:10010000B0E08093330490933404A0933504B0930B
:10011000360485B1846085B9089585B18B7F85B932
:100120008CEF8EBD0DB407FEFDCF8EB51EBC0DB499
:1001300007FEFDCF8EB590E0A0E0B0E08093110403
:1001400090931204A0931304B093140485B18460B7
:1001500085B908950E9453000E9470000E948D008E
:1001600080915B0490915C04A0915D04B0915E0469
:10017000AC01BD01032E3CE0440F551F661F771FE5
:100180003A95D1F7302D8091330490913404A091A9
:100190003504B0913604880F991FAA1FBB1F880F22
:1001A000991FAA1FBB1F880F991FAA1FBB1F880F6B
:1001B000991FAA1FBB1F842B952BA62BB72B4091F1
:1001C0001104509112046091130470911404689406
:1001D00013F876956795579547951694D1F7842B24
:1001E000952BA62BB72B8093F4039093F503A09344
:1001F000F603B093F703089585B18B7F85B984E743
:100200008EBD0DB407FEFDCF8EB587E28EBD0DB459
:1002100007FEFDCF8EB585B1846085B985B18B7F32
:1002200085B984EF8EBD0DB407FEFDCF8EB51EBC23
:100230000DB407FEFDCF8EB585B1846085B90895F4
:100240004F925F926F927F928F929F92AF92BF92E6
:10025000CF92DF92EF92FF926091F4037091F503D9
:100260008091F6039091F7030E94050B6B017C01CE
:100270006093060470930704809308049093090424
:1002800020E030E040E858E30E94B70B4B015C01EE
:100290006091FE037091FF0380E090E00E94050BE7
:1002A00020E030E040E85AE30E94B70B9B01AC012C
:1002B000C501B4010E94EB094B015C0160910C0483
:1002C00070910D04072E000C880B990B0E94070BF0
:1002D0002B013C019B01AC01C501B4010E94B70B8D
:1002E0004B015C016093190470931A0480931B0402
:1002F00090931C0420E030E040E057E3C701B601D2
:100300000E94B70B6B017C0120E030E040E059E334
:10031000C301B2010E94B70B9B01AC01C701B6013A
:100320000E94EB096B017C016091A8047091A90403
:10033000072E000C880B990B0E94070BA701960152
:100340000E94B70B9B01AC016093690470936A042F
:1003500080936B0490936C04C501B4010E94EC0976
:100360006093B0047093B1048093B2049093B3048B
:1003700020E030E040EA55E40E945D0A60932704E3
:10038000709328048093290490932A048BE691E0CB
:100390000E94F2086091270470912804809129043A
:1003A00090912A0442E00E941A0989E891E00E9493
:1003B000F2086FE185E00E949F066091270470912A
:1003C00028048091290490912A040E94DA078DE87C
:1003D00091E00E944D07FF90EF90DF90CF90BF908B
:1003E000AF909F908F907F906F905F904F90089507
:1003F0000E94FC0085B18B7F85B987EF8EBD0DB45F
:1004000007FEFDCF8EB51EBC0DB407FEFDCF8EB529
:1004100090E0A0E0B0E08093150490931604A093C0
:100420001704B09318041EBC0DB407FEFDCF8EB5A3
:1004300090E0A0E0B0E08093230490932404A09384
:100440002504B09326041EBC0DB407FEFDCF8EB567
:1004500090E0A0E0B0E080931D0490931E04A09370
:100460001F04B093200485B1846085B98091150480
:1004700090911604A0911704B0911804AC01BD012D
:10048000032E3CE0440F551F661F771F3A95D1F7A6
:10049000302D8091230490912404A0912504B091E3
:1004A0002604880F991FAA1FBB1F880F991FAA1F18
:1004B000BB1F880F991FAA1FBB1F880F991FAA1F58
:1004C000BB1F842B952BA62BB72B40911D0450915D
:1004D0001E0460911F0470912004689413F87695AF
:1004E0006795579547951694D1F7842B952BA62B96
:1004F000B72B8093F0039093F103A093F203B09392
:10050000F303089585B18B7F85B988E88EBD0DB45E
:1005100007FEFDCF8EB51EBC0DB407FEFDCF8EB518
:1005200090E09093FB038093FA031EBC0DB407FE8A
:10053000FDCF8EB590E090937804809377041EBC35
:100540000DB407FEFDCF8EB590E0909364048093C8
:1005500063041EBC0DB407FEFDCF8EB590E09093F2
:100560007E0480937D041EBC0DB407FEFDCF8EB5C6
:1005700090E090930F0480930E041EBC0DB407FE10
:10058000FDCF8EB590E09093AD048093AC041EBC7B
:100590000DB407FEFDCF8EB590E09093A504809337
:1005A000A4041EBC0DB407FEFDCF8EB590E0909361
:1005B000800480937F041EBC0DB407FEFDCF8EB572
:1005C00090E090936F0480936E041EBC0DB407FE00
:1005D000FDCF8EB590E090936604809365041EBCB9
:1005E0000DB407FEFDCF8EB590E090930404809388
:1005F00003041EBC0DB407FEFDCF8EB590E09093B2
:100600003204809331041EBC0DB407FEFDCF8EB5BD
:1006100090E090930204809301041EBC0DB407FE89
:10062000FDCF8EB590E090932204809321041EBCF0
:100630000DB407FEFDCF8EB590E0909383048093B8
:1006400082041EBC0DB407FEFDCF8EB590E09093E2
:10065000AF048093AE041EBC0DB407FEFDCF8EB573
:1006600090E090930B0480930A041EBC0DB407FE27
:10067000FDCF8EB590E090936204809361041EBC20
:100680000DB407FEFDCF8EB590E090935904809392
:1006900058041EBC0DB407FEFDCF8EB590E09093BC
:1006A000B5048093B4041EBC0DB407FEFDCF8EB517
:1006B00090E090936804809367041EBC0DB407FE1D
:1006C000FDCF8EB590E090937A04809379041EBCA0
:1006D0000DB407FEFDCF8EB590E090937C0480931F
:1006E0007B041EBC0DB407FEFDCF8EB590E0909349
:1006F0002C0480932B0440E050E05091770420912B
:10070000FA033091FB03242B352B3093FF03209306
:10071000FE0350917D042091630430916404242BE6
:10072000352B30930D0420930C045091AC04209190
:100730000E0430910F04242B352B3093A904209301
:10074000A80440E050E050917F042091A40430912F
:10075000A504242B352B309371042093700440E0C2
:1007600050E05091650420916E0430916F04242B69
:10077000352B30932E0420932D0440E050E050910F
:1007800031042091030430910404242B352B309341
:1007900073042093720440E050E0509121042091B2
:1007A000010430910204242B352B30933004209324
:1007B0002F0440E050E05091AE042091820430912B
:1007C0008304242B352B3093600420935F0440E096
:1007D00050E05091610420910A0430910B04242BC5
:1007E000352B3093AB042093AA0440E050E05091A5
:1007F000B4042091580430915904242B352B3093A4
:10080000FD032093FC0340E050E0509179042091D7
:10081000670430916804242B352B309375042093A2
:100820007404982F882720917B0430917C04822BBC
:10083000932B9093A7048093A60408954F925F9200
:100840006F927F928F929F92AF92BF92CF92DF92E0
:10085000EF92FF926091B0047091B1048091B20464
:100860009091B30420E030E040E05FE30E94B70BDA
:1008700020E030E04AE757E40E94EB096B017C017D
:1008800020E030E0A9010E94B70B4B015C016091B0
:10089000AA047091AB04072E000C880B990B0E94E0
:1008A000070B9B01AC01C501B4010E94B70B20E00E
:1008B00030E040E058E30E94B70B9B01AC01C70158
:1008C000B6010E94B70B4B015C0160915F0470910F
:1008D0006004072E000C880B990B0E94070B9B01EC
:1008E000AC01C501B4010E94B70B9B01AC010E9491
:1008F000EC0920E030E040E85EE30E94B70B4B01DA
:100900005C0160912F0470913004072E000C880B5D
:10091000990B0E94070B20E030E040E857E40E946A
:10092000B70B9B01AC01C501B4010E94EC094B015E
:100930005C016091720470917304072E000C880BA7
:10094000990B0E94070B9B01AC01C701B6010E94E5
:10095000B70B9B01AC01C701B6010E94B70B20E0A9
:1009600030E040E056E30E94B70B2B013C01609160
:100970002D0470912E04072E000C880B990B0E94F9
:10098000070B9B01AC01C701B6010E94B70B9B018D
:10099000AC01C301B2010E94EC0920E030E040E06C
:1009A00056E30E94B70B20E030E040E058E30E949D
:1009B000B70B20E030E040E85FE30E94EC096B01F8
:1009C0007C01609170047091710480E090E00E945D
:1009D000050B9B01AC01C701B6010E94B70B6B016F
:1009E0007C016091F0037091F1038091F20390918A
:1009F000F3030E94050B9B01AC0160E070E080E80E
:100A000099E40E94EB092B013C0120E030E040E832
:100A100059E3C501B4010E94B70B9B01AC01C301AE
:100A2000B2010E94EB0920E030E543EC55E40E945E
:100A3000B70BA70196010E945D0A6B017C016091D2
:100A4000A6047091A704072E000C880B990B0E9436
:100A5000070B9B01AC01C701B6010E94B70B9B01BC
:100A6000AC01C701B6010E94B70B20E030E040E0C6
:100A700050E30E94B70B4B015C01609174047091CC
:100A80007504072E000C880B990B0E94070B9B0125
:100A9000AC01C701B6010E94B70B20E030E040E096
:100AA00058E30E94B70B9B01AC01C501B4010E9441
:100AB000EC094B015C016091FC037091FD03072E72
:100AC000000C880B990B0E94070B9B01AC01C50120
:100AD000B4010E94EC0920E030E040E85DE30E94B0
:100AE000B70B9B01AC01C701B6010E94EC0920E0E5
:100AF00030E048EC52E40E945D0A6B017C0180E921
:100B000091E00E94F20842E0C701B6010E941A0972
:100B100081EA91E00E94F20887E591E00E94F208E4
:100B200064E187E00E949F06C701B6010E94DA07D0
:100B300081EA91E00E944D07FF90EF90DF90CF9007
:100B4000BF90AF909F908F907F906F905F904F90ED
:100B50000895982F92959F70990F292F220F220F99
:100B6000920F8F70890F08952F923F924F925F924C
:100B70006F927F928F929F92AF92BF92CF92DF92AD
:100B8000EF92FF920F931F93CF93DF936C015B0162
:100B90004A01E9010E94460680ED0E94520680E06B
:100BA0000E9452060E94460681ED0E9452060E9453
:100BB0006606282E0E946606382E0E946606482E7B
:100BC0000E9466060E946606582E0E946606682EDF
:100BD0000E945C06782E0E944E06822D8F770E941E
:100BE000A905F4018083832D0E94A905F501808366
:100BF000842D8F730E94A905F6018083852D0E94A4
:100C0000A9058883862D8F710E94A905F80180832C
:100C1000872D0E94A905F7018083DF91CF911F9155
:100C20000F91FF90EF90DF90CF90BF90AF909F908B
:100C30008F907F906F905F904F903F902F9008958E
:100C4000811107C08CE0FB01808381E4FA0180837D
:100C500008958C3030F4FB01808381E4FA018083B5
:100C600008958C3031F4FB01808380E5FA018083A4
:100C700008958C50FB01808380E5FA0180830895FC
:100C80001092B90088E48093B800089584EA8093B4
:100C9000BC008091BC008823E4F7089584E9809328
:100CA000BC0008958093BB0084E88093BC008091D1
:100CB000BC008823E4F7089584E88093BC00809109
:100CC000BC008823E4F78091BB00089584EC8093F6
:100CD000BC008091BC008823E4F78091BB0008959C
:100CE0000E9440060E94CA080E94DF080E94CC06AB
:100CF0000E94B6060E94A208FDCFCF93C82F0E9483
:100D0000460688E70E94520680E00E9452068C2F19
:100D10000E9452060E944E06CF910895CF93C82F8D
:100D20000E94460688E70E94520680E40E9452060E
:100D30008C2F0E9452060E944E06CF910895CF93A9
:100D4000C62F9091B6049093F9038093F8038055D1
:100D50000E947D068C2F8F700E947D068C2F8295BD
:100D60008F70805F0E947D06CF910895CF93DF93AF
:100D7000D0E00DC060E08D2F0E949F06C0E004C04F
:100D800080E00E948E06CF5FCC23D4F7DF5FD8309F
:100D900088F3DF91CF9108952FEF81EE94E02150F9
:100DA00080409040E1F700C000008EEA0E947D067E
:100DB00080E20E947D0680E00E947D0680EB0E941A
:100DC0007D0688EC0E947D0680E00E947D0680E121
:100DD0000E947D0680E40E947D0681E80E947D06D7
:100DE0008FE70E947D0681EA0E947D0686EA0E94C6
:100DF0007D0688EA0E947D068FE30E947D0684EAD4
:100E00000E947D0683ED0E947D0680E00E947D06A3
:100E100085ED0E947D0680E80E947D0689ED0E9496
:100E20007D0681EF0E947D068AED0E947D0682E1AB
:100E30000E947D068BED0E947D0680E40E947D0667
:100E40008DE80E947D0684E10E947D068FEA0E9463
:100E50007D060E94B6060895CF93DF93D0EED80F9B
:100E6000DF35C0F4C0E011C08D2F90E0FC01EE0F23
:100E7000FF1FEE0FFF1FE80FF91FE25FFD4FEC0FA2
:100E8000F11D80810E948E06CF5FC53068F380E03F
:100E90000E948E06DF91CF910895CF93DF93EC01EE
:100EA00003C021960E942C0788818111FACFDF911F
:100EB000CF910895CF93DF93D0EDD80FDA3058F06B
:100EC0008A3331F08D3231F08E32C9F4DCE003C068
:100ED000DAE001C0DBE0C0E010C0ED2FF0E0EE0F83
:100EE000FF1FEE0FFF1FEE0FFF1FEA55FE4FEC0F27
:100EF000F11D80810E948E06CF5FC83070F3DF91B4
:100F0000CF910895CF93DF93D82FCDEC8C9FC12D37
:100F10001124C695C695C69580E38C0F0E945A078A
:100F2000CC0F8C2F880F880FC80F8D2F8C1B805DE6
:100F30000E945A07DF91CF910895CF93DF93D62F68
:100F4000C42F4DE654E065E074E090E00E94200676
:100F5000809105040E9482078AE30E945A078D2F20
:100F60000E9482078AE30E945A078C2F0E94820700
:100F700080E20E942C0780916D040E942C078DE472
:100F80000E942C07DF91CF910895CF93DF93D62F46
:100F9000C42F0E9482078DE20E945A078D2F0E9463
:100FA00082078DE20E945A078C2F0E948207DF91F0
:100FB000CF9108958F929F92AF92BF92CF92DF927E
:100FC000EF92FF920F931F93CF93DF936B017C01FE
:100FD00020E030E0A9010E94580A88233CF48DE209
:100FE0000E945A07F7FAF094F7F8F094C701B60197
:100FF0000E94CF0AEB01072E000C880B990B0E9470
:10100000070B9B01AC01C701B6010E94EB0920E070
:1010100030E048EC52E40E94B70B20E030E040E0C2
:101020005FE30E94EC090E94CF0A8B0164367105D0
:101030001CF0219600E010E0C83E83E0D8074CF099
:10104000CE0168EE73E00E94240C80E3860F0E94BC
:101050005A07C436D1056CF0CE0164E670E00E94F8
:10106000240CCB016AE070E00E94240C805D0E9499
:101070005A07CA30D1056CF02AE030E0CE01B90140
:101080000E94240CCB01B9010E94240C805D0E94B7
:101090005A070F2EFAE0EF2EF12CF02DCE01B701FA
:1010A0000E94240C805D0E945A078EE20E945A071B
:1010B000C801B7010E94240CC82F80E3860F0E944C
:1010C0005A0780E38C0F0E945A07DF91CF911F913E
:1010D0000F91FF90EF90DF90CF90BF90AF909F90D7
:1010E0008F90089566E181E00E949F064091100470
:1010F00060910004809181040E949D0708956AE137
:1011000083E00E949F0640917604609137048091AD
:101110005A040E94C50708950E94B9090E94D20985
:101120000E9472080E947F0808950E94FC000E949D
:10113000AA000E9420010E9482020E94F8010E94DF
:101140001E040895EF92FF920F931F930F2EF6E760
:10115000EF2EF4E0FF2EF02D07E314E02AE534E053
:1011600040E154E060E074E081E894E00E94B4055E
:101170000E948C080E9495082FE38DE093E0215097
:1011800080409040E1F700C000001F910F91FF9058
:10119000EF90089584B18C6284B984B18F7E84B954
:1011A00085B1846085B98AB188608AB981E58CBDD2
:1011B0008FE39CE90197F1F700C0000008951092B9
:1011C000C50087E68093C40088E08093C10086E074
:1011D0008093C20008959091C00095FFFCCF80934A
:1011E000C6000895CF93DF93EC0103C021960E94BF
:1011F000EB0888818111FACFDF91CF910895CF93C9
:10120000DF93D82FCDEC8C9FC12D1124C695C695A8
:10121000C69580E38C0F0E94EB08CC0F8C2F880FB3
:10122000880FC80F8D2F8C1B805D0E94EB08DF910B
:10123000CF9108954F925F926F927F928F929F927B
:10124000AF92BF92CF92DF92EF92FF920F931F93D4
:10125000CF93DF934B015C01042F20E030E0A90124
:101260000E94580A88233CF48DE20E94EB08B7FAEA
:10127000B094B7F8B094C0E00F2EC12CD12CF0E898
:10128000EF2EFFE3FF2EF02D0BC020E030E040E218
:1012900051E4C701B6010E94B70B6B017C01CF5F1F
:1012A000C01798F3A701960160E070E080E09FE32B
:1012B0000E945D0A9B01AC01C501B4010E94EC09CA
:1012C0002B013C010E94CF0A4B015C01072E000C50
:1012D000880B990B0E94070B9B01AC01C301B20163
:1012E0000E94EB099B01AC01C701B6010E94B70B3C
:1012F0000E94CF0AEB01882D0E94FF088EE20E9417
:10130000EB0810E00150110921C09B01220F331F8F
:10131000660F771F660F771F660F771F620F731FA9
:10132000019604C080E090E061E070E080179107D2
:1013300064F3CE010E94240CCB016AE070E00E94AD
:10134000240C805D0E94EB0801501109112354F711
:10135000DF91CF911F910F91FF90EF90DF90CF9091
:10136000BF90AF909F908F907F906F905F904F90C5
:101370000895809181040E94FF088EEE93E00E9400
:10138000F208809100040E94FF088EEE93E00E9414
:10139000F208809110040E94FF0886E591E00E9407
:1013A000F208089580915A040E94FF088EEE93E09F
:1013B0000E94F208809137040E94FF088EEE93E0AD
:1013C0000E94F208809176040E94FF0886E591E071
:1013D0000E94F20808955058BB27AA270E94030ACA
:1013E0000C947D0B0E946F0B38F00E94760B20F05E
:1013F00039F49F3F19F426F40C946C0B0EF4E0952D
:10140000E7FB0C94660BE92F0E948E0B58F3BA177A
:10141000620773078407950720F079F4A6F50C940A
:10142000B00B0EF4E0950B2EBA2FA02D0B01B901D5
:1014300090010C01CA01A0011124FF27591B99F04A
:10144000593F50F4503E68F11A16F040A22F232F56
:10145000342F4427585FF3CF469537952795A795A6
:10146000F0405395C9F77EF41F16BA0B620B730B4D
:10147000840BBAF09150A1F0FF0FBB1F661F771FBE
:10148000881FC2F70EC0BA0F621F731F841F48F473
:10149000879577956795B795F7959E3F08F0B0CFFC
:1014A0009395880F08F09927EE0F979587950895E3
:1014B0000E94420B08F481E008950E94710A0C9486
:1014C0007D0B0E94760B58F00E946F0B40F029F4C0
:1014D0005F3F29F00C94660B51110C94B10B0C94E6
:1014E0006C0B0E948E0B68F39923B1F3552391F393
:1014F000951B550BBB27AA2762177307840738F083
:101500009F5F5F4F220F331F441FAA1FA9F335D0DF
:101510000E2E3AF0E0E832D091505040E695001C93
:10152000CAF72BD0FE2F29D0660F771F881FBB1F4D
:10153000261737074807AB07B0E809F0BB0B802D2B
:10154000BF01FF2793585F4F3AF09E3F510578F057
:101550000C94660B0C94B10B5F3FE4F3983ED4F30C
:10156000869577956795B795F7959F5FC9F7880F2B
:10157000911D9695879597F90895E1E0660F771F7D
:10158000881FBB1F621773078407BA0720F0621B0E
:10159000730B840BBA0BEE1F88F7E09508950E9439
:1015A000D60A6894B1110C94B10B08950E94960B61
:1015B00088F09F5798F0B92F9927B751B0F0E1F014
:1015C000660F771F881F991F1AF0BA95C9F714C0C4
:1015D000B13091F00E94B00BB1E008950C94B00BC3
:1015E000672F782F8827B85F39F0B93FCCF38695FD
:1015F00077956795B395D9F73EF49095809570955A
:1016000061957F4F8F4F9F4F0895E89409C097FBD6
:101610003EF490958095709561957F4F8F4F9F4FC9
:101620009923A9F0F92F96E9BB279395F69587950D
:1016300077956795B795F111F8CFFAF4BB0F11F4D0
:1016400060FF1BC06F5F7F4F8F4F9F4F16C0882377
:1016500011F096E911C0772321F09EE8872F762FAD
:1016600005C0662371F096E8862F70E060E02AF0EE
:101670009A95660F771F881FDAF7880F96958795DA
:1016800097F90895990F0008550FAA0BE0E8FEEFAF
:1016900016161706E807F907C0F012161306E40736
:1016A000F50798F0621B730B840B950B39F40A262F
:1016B00061F0232B242B252B21F408950A2609F40D
:1016C000A140A6958FEF811D811D089597F99F6711
:1016D00080E870E060E008959FEF80EC08950024BA
:1016E0000A941616170618060906089500240A9487
:1016F00012161306140605060895092E0394000C0D
:1017000011F4882352F0BB0F40F4BF2B11F460FF9B
:1017100004C06F5F7F4F8F4F9F4F089557FD9058C4
:10172000440F551F59F05F3F71F04795880F97FBA5
:10173000991F61F09F3F79F087950895121613065F
:101740001406551FF2CF4695F1DF08C0161617068E
:101750001806991FF1CF86957105610508940895C3
:10176000E894BB2766277727CB0197F908950E9455
:10177000CA0B0C947D0B0E946F0B38F00E94760B05
:1017800020F0952311F00C94660B0C946C0B112433
:101790000C94B10B0E948E0B70F3959FC1F3950FC3
:1017A00050E0551F629FF001729FBB27F00DB11DE5
:1017B000639FAA27F00DB11DAA1F649F6627B00D75
:1017C000A11D661F829F2227B00DA11D621F739F5E
:1017D000B00DA11D621F839FA00D611D221F749F6C
:1017E0003327A00D611D231F849F600D211D822FB3
:1017F000762F6A2F11249F5750409AF0F1F08823DA
:101800004AF0EE0FFF1FBB1F661F771F881F915006
:101810005040A9F79E3F510580F00C94660B0C9444
:10182000B10B5F3FE4F3983ED4F3869577956795C7
:10183000B795F795E7959F5FC1F7FE2B880F911D30
:101840009695879597F9089597FB072E16F40094BF
:1018500007D077FD09D00E94380C07FC05D03EF474
:10186000909581959F4F0895709561957F4F08954C
:10187000AA1BBB1B51E107C0AA1FBB1FA617B707B6
:1018800010F0A61BB70B881F991F5A95A9F78095D2
:0C1890009095BC01CD010895F894FFCFA5
:10189C000A41746D6F73547261636B2062792041DD
:1018AC006E656573204B6F6B6164616E2076322EB2
:1018BC00300041746D6F73547261636B2076322EFD
:1018CC003000427920416E656573204B6F6B61640B
:1018DC00616E00436869702049443A20006469676E
:1018EC005F54313A20000D0A006469675F54323A44
:1018FC0020006469675F54333A20000A5265616CBA
:10190C002074696D6520726F6F6D2074656D7065E4
:10191C007261747572653A200020430A00204300FE
:10192C000A41746D2E2050726573737572653A207E
:10193C000020685061003E5149453E0000000042C5
:10194C007F400000000042615149460000002141E7
:10195C00454B310000001814127F10000000274581
:10196C004545390000003C4A4949300000000171EE
:10197C0009050300000036494949360000000649B4
:10198C0049291E000000003636000000000008083F
:10199C0008080800000000000018180000000000F3
:1019AC0000000000005F00000007000700147F1417
:1019BC007F14242A7F2A1223130864623649552285
:1019CC00500005030000001C2241000041221C00B5
:1019DC0014083E081408083E08080050300000089F
:1019EC0008080808006060000020100804023E513E
:1019FC0049453E00427F40004261514946214145E4
:101A0C004B311814127F1027454545393C4A49493A
:101A1C003001710905033649494936064949291EE1
:101A2C00003636000000563600000814224100141F
:101A3C0014141414004122140802015109063249ED
:101A4C0079413E7E1111117E7F494949363E414113
:101A5C0041227F4141221C7F494949417F090909A3
:101A6C00013E4149497A7F0808087F00417F4100C7
:101A7C002040413F017F081422417F404040407F7D
:101A8C00020C027F7F0408107F3E4141413E7F09DA
:101A9C000909063E4151215E7F09192946464949EB
:101AAC00493101017F01013F4040403F1F20402050
:101ABC001F3F4038403F6314081463070870080741
:101ACC006151494543007F41410002040810200048
:101ADC0041417F00040201020440404040400001AB
:101AEC0002040020545454787F4844443838444409
:101AFC004420384444487F3854545418087E090113
:101B0C00020C5252523E7F0804047800447D40007F
:101B1C002040443D007F1028440000417F40007C61
:101B2C00041804787C0804047838444444387C1441
:101B3C00141408081414187C7C0804040848545421
:101B4C005420043F4440203C4040207C1C2040203A
:101B5C001C3C4030403C44281028440C5050503C15
:101B6C004464544C44000836410000007F000000DF
:101B7C004136080008082A1C08081C2A08083A00E4
:00000001FF
