:100000000C94EB000C9408010C9408010C9408016A
:100010000C9408010C9408010C9408010C9408013C
:100020000C9408010C9408010C9408010C9408012C
:100030000C9408010C9408010C9408010C9408011C
:100040000C9408010C9408010C9408010C9408010C
:100050000C9408010C9408010C9408010C940801FC
:100060000C9408010C940801BF07C707D007EA07E2
:10007000EA07EA07EA07EA07EA07EA07EA07EA07F8
:10008000EA07EA07EA07D907EA07EA07EA07E20701
:10009000EA07EA07EA07EA07EA07EA07EA07EA07D8
:1000A000EA07EA07EA07EA07C606CF06D906E30623
:1000B000ED06F60601070B0715071E07280732078E
:1000C0003B0745074F07570760076A0773077C0719
:1000D000870791079A07A307AC07B50700407A1076
:1000E000F35A00A0724E18090010A5D4E80000E8E9
:1000F0007648170000E40B54020000CA9A3B000047
:1001000000E1F505000080969800000040420F00D5
:100110000000A08601000000102700000000E80396
:10012000000000006400000000000A000000000061
:100130000100000000002C76D888DC674F0823DF20
:10014000C1DFAE59E1B1B796E5E3E453C63AE651F3
:10015000997696E8E6C28426EB898C9B62ED407C1A
:100160006FFCEFBC9C9F40F2BAA56FA5F490055AB6
:100170002AF75C936B6CF9676DC11BFCE0E40D47DB
:10018000FEF520E6B500D0ED902E030094357705FE
:100190000080841E080000204E0A000000C80C33B6
:1001A0003333330F986E12831141EF8D2114893B45
:1001B000E65516CFFEE6DB18D1844B381BF77C1DC5
:1001C000901DA4BBE424203284725E228100C9F118
:1001D00024ECA1E53D2711241FBECFEFD8E0DEBF00
:1001E000CDBF11E0A0E0B1E0E8EFFAE102C0059078
:1001F0000D92A236B107D9F721E0A2E6B1E001C025
:100200001D92A63AB207E1F70E9421050C947A0DDF
:100210000C940000CF93DF93D82FC62F0E94F304D5
:1002200080910001880F0E9403058D2F0E94030515
:100230008C2F0E9403050E94FB04DF91CF9108954B
:10024000CF93DF93C82F0E94F30480910001880FA1
:100250000E9403058C2F0E9403050E94F3048091E5
:10026000000190E0880F991F81600E9403050E94A1
:100270000D05D82F0E941705C82F0E94FB048C2F54
:1002800090E0982F88278D2BDF91CF9108951F93B1
:10029000CF93DF93C82F0E94F30480910001880F51
:1002A0000E9403058C2F0E9403050E94F304809195
:1002B000000190E0880F991F81600E9403050E9451
:1002C0000D05C82F0E940D05182F0E941705D82F65
:1002D0000E94FB048C2F90E0A0E0B0E0BC01552709
:1002E0004427812F90E0982F8827A0E0B0E0842B4E
:1002F000952BA62BB72BBC01CD016D2BDF91CF9198
:100300001F91089588E80E942001909365018093D1
:1003100064018AE80E94200190936701809366013E
:100320008CE80E94200190937701809376018EE8FB
:100330000E94200190936F0180936E0180E90E94DA
:100340002001909369018093680182E90E94200155
:10035000909371018093700184E90E942001909331
:100360006B0180936A0186E90E94200190936D01E0
:1003700080936C0188E90E94200190937901809319
:1003800078018AE90E9420019093630180936201C1
:100390008CE90E94200190937301809372018EE991
:1003A0000E942001909375018093740167E284EFAD
:1003B0000E940A0160EA85EF0E940A012FEF81EE98
:1003C00094E0215080409040E1F700C00000089583
:1003D0004F925F926F927F928F929F92AF92BF9255
:1003E000CF92DF92EF92FF928AEF0E9447016B015A
:1003F0007C01AB01BC01689416F87595679557951B
:1004000047951694D1F74090640150906501612C96
:10041000712CD301C201880F991FAA1FBB1F9A011B
:10042000AB01281B390B4A0B5B0BA0916601B09105
:1004300067010E948C094B015C01072E7BE0B5949B
:10044000A794979487947A95D1F7702DBB27F7FCE2
:10045000BA95AF2D9E2D8D2DBC01CD016419750966
:10046000860997099B01AC010E946B099B01AC01B5
:10047000012E1CE055954795379527951A95D1F78C
:10048000102DA0917601B09177010E948C09DC01BA
:10049000CB01072E7EE0B595A795979587957A9520
:1004A000D1F7702D880D991DAA1DBB1D80937A016F
:1004B00090937B01A0937C01B0937D016C017D0141
:1004C000CC0CDD1CEE1CFF1CCC0CDD1CEE1CFF1C40
:1004D0008C0D9D1DAE1DBF1D80589F4FAF4FBF4F50
:1004E000692F7A2F8B2F992787FD9A950E94910863
:1004F00020E030E048EC52E40E941708FF90EF90B3
:10050000DF90CF90BF90AF909F908F907F906F9033
:100510005F904F9008952F923F924F925F926F920B
:100520007F928F929F92AF92BF92CF92DF92EF9283
:10053000FF920F931F93CF93DF93CDB7DEB76697EC
:100540000FB6F894DEBF0FBECDBF87EF0E94470104
:100550009B01AC01689413F85595479537952795FD
:100560001694D1F72F87388B498B5A8B80917A015B
:1005700090917B01A0917C01B0917D016C017D0186
:10058000FF0CCC08DC2C7601282F392F4A2F5B2F4B
:100590006C2D7C2D8C2D9C2D345F414051096109BF
:1005A00071098109910929833A83442E552E662EBB
:1005B000772E282E392EA22EB32EC42ED52EE62E1F
:1005C000F72E082F192F0E9494092B833C834D830B
:1005D0005E836F83788789879A87B0907901A0902E
:1005E00078011B2D110F110BC12ED12EE12EF12EF2
:1005F000012F0E9494092B873C874D875E87862EAA
:10060000972E8C8B9B8BB0906D01A0906C011B2D55
:10061000110F110BC12ED12EE12EF12E012F2981A8
:100620003A81442D552D662D772D822D932D0E94D4
:10063000940901E10E94C40AA22EB32EC42ED52E25
:10064000E62EF72E082F192F2B853C854D855E85CC
:10065000682D792D8C899B890E94FB0A822E932E0E
:100660004C875B87B62FA72FF82FE92F30916B01AE
:1006700020916A01932F990F990B492F592F692FB8
:10068000792F892F03E20E94C40AA22EB32EC42E12
:10069000D52EE62EF72E082F192F282D392D4C8513
:1006A0005B856B2F7A2F8F2F9E2F0E94FB0A2B8743
:1006B0003C874D875E876B8B7C8B8D8B9E8BB09040
:1006C0007101A09070011B2D110F110BC12ED12EA5
:1006D000E12EF12E012F2B813C814D815E816F81B6
:1006E000788589859A850E94940908E00E94DD0A30
:1006F0002B833C834D835E83862E972E88879F8332
:10070000B0906901A09068011B2D110F110BC12E33
:10071000D12EE12EF12E012F29813A81442D552D24
:10072000662D772D822D932D0E9494090CE00E9456
:10073000C40AA22EB32EC42ED52EE62EF72E082FD5
:10074000192F2B813C814D815E81682D792D888503
:100750009F810E94FB0A70588F4F9F4FE0916E015E
:10076000F0916F011F01AE2EB32CC12CD12CE12CC6
:10077000F12C00E010E00E94940901E20E94DD0AE1
:10078000422E532E642E752E862E972E8A839983A1
:10079000A0E00E940D0B09F404C180E090E0A0E10C
:1007A000B0E02F85388949895A89821B930BA40BA5
:1007B000B50B6C017D01FF0CCC08DC2C7601282FD9
:1007C000392F4A2F5B2F6C2D7C2D8C2D9C2D0FE10A
:1007D0000E94C40AAB84BC84CD84DE84EB88FC8890
:1007E0000D891E890E94040B0F2EF5E3AF2EF02D0C
:1007F0000F2EFCE0BF2EF02DC12CD12CE12CF12CC2
:1008000000E010E00E949409A42CB52CC62CD72C33
:10081000E82CF92C0A8119810E94EF092C873B876B
:1008200049835A836B837C838D839E83F09175010A
:10083000A0917401EF2FEE0FEE0B0DE00E94DD0A88
:10084000222E332E442E552E662E772E882E992E4C
:10085000A22EB32EC42ED52EE62EF72E082F192F3A
:100860002A2F3F2F4E2F5E2F6E2F7E2F8E2F9E2FE3
:100870000E949409A22EB32EC42ED52EE62EF72E5A
:10088000082F192F222D332D442D552D662D772D10
:10089000882D992D0E94940909E10E94DD0A522EAB
:1008A000432E342E252E6F83788789879A87B090C0
:1008B0007301A09072011B2D110F110BC12ED12EAF
:1008C000E12EF12E012F2C853B8549815A816B81C8
:1008D0007C818D819E810E94940903E10E94DD0A42
:1008E000622E732E842E952EB62FA72FF82FE92F68
:1008F0002C853B8549815A816B817C818D819E81CC
:10090000A52CB42CC32CD22CEF80F88409851A8531
:100910000E94FB0AA22EB32EC42ED52EE62EF72E51
:10092000082F192F262D372D482D592D6B2F7A2F53
:100930008F2F9E2F0E94FB0A08E00E94DD0A822E64
:10094000932E4A835983B62FA72FF82FE92F309182
:10095000630120916201932F990F990B492F592F11
:10096000692F792F892F04E00E94C40AA22EB32E8A
:10097000C42ED52EE62EF72E082F192F282D392D0F
:100980004A8159816B2F7A2F8F2F9E2F0E94FB0A4D
:100990000E94890820E030E048EC56E40E941708E5
:1009A00003C060E070E0CB0166960FB6F894DEBF3E
:1009B0000FBECDBFDF91CF911F910F91FF90EF90B0
:1009C000DF90CF90BF90AF909F908F907F906F906F
:1009D0005F904F903F902F9008951092B90088E457
:1009E0008093B800089584EA8093BC008091BC0095
:1009F0008823E4F7089584E98093BC0085E38A9511
:100A0000F1F7000008958093BB0084E88093BC0058
:100A10008091BC008823E4F7089584EC8093BC00A7
:100A20008091BC008823E4F78091BB00089584E89E
:100A30008093BC008091BC008823E4F78091BB00C8
:100A400008950E94ED040E949F050E94F4050E94F3
:100A500082010E94E8014B015C010E948B026B0144
:100A60007C010EE711E022E045E0C501B4010E94DF
:100A7000280B02E911E022E046E0C701B6010E941E
:100A8000280B64E082E00E94100683E491E00E945B
:100A90000A0864E083E00E9410068EE791E00E945D
:100AA0000A0880E591E00E940A082FEF87EA91E6A4
:100AB000215080409040E1F700C0000064E086E0F3
:100AC0000E94100683E591E00E940A0864E087E036
:100AD0000E941006C8010E940A088DE591E00E945C
:100AE0000A082FEF87EA91E6215080409040E1F715
:100AF00000C00000AECFCF93C82F0E94F3048091B6
:100B000001010E94030580E00E9403058C2F0E94D2
:100B100003050E94FB04CF910895CF93C82F0E9434
:100B2000F304809101010E94030580E40E94030503
:100B30008C2F0E9403050E94FB04CF9108952FEF94
:100B400081EE94E0215080409040E1F700C0000029
:100B50008EEA0E947B0585ED0E947B0580E80E945D
:100B60007B0588EA0E947B058FE30E947B0583ED6D
:100B70000E947B0580E00E947B0580E40E947B054B
:100B80008DE80E947B0584E10E947B0580E20E9443
:100B90007B0580E00E947B0581EA0E947B0588EC52
:100BA0000E947B058AED0E947B0582E10E947B0505
:100BB00081E80E947B058FEC0E947B0589ED0E94F5
:100BC0007B0581EF0E947B058BED0E947B0580E415
:100BD0000E947B0584EA0E947B0586EA0E947B05D1
:100BE0008FEA0E947B050895CF93DF93D0E013C076
:100BF00080EB8D0F0E947B0580E00E947B0580E1E9
:100C00000E947B05C0E004C080E00E948D05CF5F9C
:100C1000CC23D4F7DF5FD83058F3DF91CF9108951C
:100C2000CF93C62F80550E947B058C2F8F700E941A
:100C30007B058C2F82958F70805F0E947B05CF9102
:100C400008950F931F93CF93DF93CDB7DEB7E79748
:100C50000FB6F894DEBF0FBECDBF803251F405C091
:100C600080E00E948D051F5F01C010E01630C0F3C8
:100C7000C6C18E32D9F485E0E2E0F1E0DE011696DD
:100C800001900D928A95E1F710E00AC0E6E0F0E0ED
:100C9000EC0FFD1FE10FF11D80810E948D051F5F8C
:100CA0001530A0F380E00E948D05A9C18A33D9F4E4
:100CB00085E0E7E0F1E0DE01169601900D928A955D
:100CC000E1F710E00AC0E6E0F0E0EC0FFD1FE10FF5
:100CD000F11D80810E948D051F5F1530A0F380E01B
:100CE0000E948D058CC18D32D9F485E0ECE0F1E0F5
:100CF000DE01169601900D928A95E1F710E00AC088
:100D0000E6E0F0E0EC0FFD1FE10FF11D80810E9495
:100D10008D051F5F1530A0F380E00E948D056FC127
:100D200000ED080F0A3030F582E3E1E1F1E0DE0189
:100D3000169601900D928A95E1F710E015C0802F6C
:100D400090E0FC01EE0FFF1FEE0FFF1FE80FF91FF1
:100D500081E090E08C0F9D1FE80FF91FE10FF11D5E
:100D600085810E948D051F5F153048F380E00E9449
:100D70008D0545C190E0FC01E154F109EA33F1052C
:100D800008F028C1EC5CFF4F0C947B0980E289835A
:100D900084E58A838B838C8388E78D8312C08FE7F9
:100DA000898388E48A8384E48B838C8388E38D83BE
:100DB00008C088E3898384E48A838B838C8380E200
:100DC0008D8310E017C188E3898384E48A838B8351
:100DD00088E48C838FE78D83F4CF88E3898384E56F
:100DE0008A838B838C8388E18D83EBCF88E0898332
:100DF0008EE78A8389E08B8381E08C8382E08D8318
:100E0000E0CF88E0898384E18A8384E58B838C83C7
:100E10008CE38D83D6CF8FE7898388E08A8384E053
:100E20008B838C8388E78D83CCCF198284E48A837B
:100E30008DE78B8380E48C831D82C3CF80E289831E
:100E400080E48A8384E48B838DE38C831D82B9CF15
:100E50008FE7898380E18A8388E28B8384E48C83B3
:100E60001D82AFCF198281E48A838FE78B8380E470
:100E70008C831D82A6CF8CE7898384E08A8398E1E6
:100E80009B838C8388E78D839CCF8CE7898388E064
:100E90008A8384E08B838C8388E78D8392CF98E369
:100EA000998384E48A838B838C839D838ACF8CE7A8
:100EB000898384E18A838B838C8388E08D8381CFCF
:100EC00088E0898384E18A838B8388E18C838CE743
:100ED0008D8377CF8CE7898388E08A8394E09B8336
:100EE0009C838D836ECF88E4898384E58A838B839A
:100EF0008C8380E28D8365CF84E089838FE38A834E
:100F000084E48B8380E48C8380E28D835ACF8CE3EE
:100F1000898380E48A838B8380E28C838CE78D8352
:100F200050CF8CE1898390E29A8320E42B839C83C9
:100F30008D8347CF8CE3898390E49A8320E32B83CE
:100F40009C838D833ECF84E4898398E29A8320E159
:100F50002B839C838D8335CF8CE0898380E58A83C6
:100F60008B838C838CE38D832CCF84E4898394E6FC
:100F70009A8394E59B839CE49C838D8322CF9EE798
:100F8000998381E18A838B838C839D831ACF8FE73A
:100F9000898389E48A838B838C8386E38D8311CF55
:100FA0008EE3898381E48A838B838C8382E28D83C1
:100FB00008CF8FE7898389E08A838B838C8386E0DF
:100FC0008D83FFCE81E089838A839FE79B838C8317
:100FD0008D83F7CE19821A821B821C821D82F1CE6C
:100FE000E1E0F0E0EC0FFD1FE10FF11D80810E94B8
:100FF0008D051F5F1530A0F380E00E948D05E796F8
:101000000FB6F894DEBF0FBECDBFDF91CF911F9119
:101010000F910895CF93DF93EC0103C021960E94B6
:10102000210688818111FACFDF91CF9108950E9426
:101030002B080C9431090E942A0958F00E942309B8
:1010400040F029F45F3F29F00C940A0951110C94E7
:1010500065090C9410090E94420968F39923B1F3C1
:10106000552391F3951B550BBB27AA2762177307CE
:10107000840738F09F5F5F4F220F331F441FAA1F62
:10108000A9F335D00E2E3AF0E0E832D0915050401E
:10109000E695001CCAF72BD0FE2F29D0660F771FCC
:1010A000881FBB1F261737074807AB07B0E809F0B2
:1010B000BB0B802DBF01FF2793585F4F3AF09E3F37
:1010C000510578F00C940A090C9465095F3FE4F32C
:1010D000983ED4F3869577956795B795F7959F5F7A
:1010E000C9F7880F911D9695879597F90895E1E0C6
:1010F000660F771F881FBB1F621773078407BA0725
:1011000020F0621B730B840BBA0BEE1F88F7E0957F
:10111000089597FB16F40E9413090C94CD08E894E7
:1011200009C097FB3EF490958095709561957F4F2F
:101130008F4F9F4F9923A9F0F92F96E9BB279395DD
:10114000F695879577956795B795F111F8CFFAF4ED
:10115000BB0F11F460FF1BC06F5F7F4F8F4F9F4F1E
:1011600016C0882311F096E911C0772321F09EE87C
:10117000872F762F05C0662371F096E8862F70E0E2
:1011800060E02AF09A95660F771F881FDAF7880FBC
:101190009695879597F90895E894F92F96EBFF2394
:1011A00081F0121613061406440B9395F695879555
:1011B0007795679557954040FF23B9F71BC099274E
:1011C0000895882351F49850D2F7872B762F652FF6
:1011D000542F432F322F20E0B1F3121613061406BA
:1011E000440B88233AF09A95440F551F661F771FCA
:1011F000881FCAF755234AF4440F551F11F460FFA6
:1012000004C06F5F7F4F8F4F9F4F880F96958795D4
:1012100097F9089597F99F6780E870E060E0089576
:101220009FEF80EC0895909580957095609550950E
:101230004095309521953F4F4F4F5F4F6F4F7F4FF8
:101240008F4F9F4F089500240A941616170618060C
:101250000906089500240A941216130614060506BA
:101260000895092E0394000C11F4882352F0BB0F4B
:1012700040F4BF2B11F460FF04C06F5F7F4F8F4FAE
:101280009F4F089557FD9058440F551F59F05F3FE9
:1012900071F04795880F97FB991F61F09F3F79F098
:1012A00087950895121613061406551FF2CF46951A
:1012B000F1DF08C0161617061806991FF1CF86959C
:1012C0007105610508940895E894BB276627772780
:1012D000CB0197F90895DB018F939F930E948109B9
:1012E000BF91AF91A29F800D911DA39F900DB29FC2
:1012F000900D11240895EE0FFF1F0590F491E02D3D
:1013000009940E94190BA59F900DB49F900DA49F66
:10131000800D911D11240895B7FF0C9481090E943E
:101320008109821B930B0895DF93CF931F930F9333
:101330009A9DF02D219FF00D8B9DF00D8A9DE02D43
:10134000F10D039FF00D029FE00DF11D4E9DE00D8C
:10135000F11D5E9DF00D4F9DF00D7F936F93BF9239
:10136000AF925F934F93D5010E94190B8B01AC0193
:10137000D7010E94190BEB01E80FF91FD6010E945B
:10138000E4092F913F91D6010E94190BC60FD71F78
:10139000E81FF91FAF91BF910E94E4092F913F917F
:1013A0000E94190BC60FD71FE81FF91FD6010E9414
:1013B000190BE60FF71F9801BE01CF0111240F9101
:1013C0001F91CF91DF9108950E94190B460F571F6F
:1013D000C81FD91F08F431960895689401C0E89495
:1013E000F92FF12B12F00C94210AA0E0B0E0EBEF02
:1013F000F9E00C94930A092E059422F40E947D0AC8
:10140000112392F4F0E80F26FFEFE094F09400959A
:101410001095B094C094D094A194BF0ACF0ADF0A6B
:10142000EF0AFF0A0F0B1F0B0E942C0A07FC0E94F9
:101430007D0ACDB7DEB7ECE00C94AF0A689401C02A
:10144000E8948F929F92CF93DF930E942C0ADF91B2
:10145000CF919F908F90089588249924F401E401FE
:10146000B0E49F93AA279A158B049C04ED05FE0512
:10147000CF05D007A10798F4AD2FDC2FCF2FFE2F7B
:10148000E92D982C892E982F872F762F652F542F92
:10149000432F322F2227B85031F7BF9127C01B2E80
:1014A000BF91BB27220F331F441F551F661F771F95
:1014B000881F991F881C991CEE1FFF1FCC1FDD1F62
:1014C000AA1FBB1F8A149B04EC05FD05CE05DF0592
:1014D000A007B10748F08A189B08EC09FD09CE095E
:1014E000DF09A00BB10B21601A94E1F62EF49401F0
:1014F000AF01BE01CD01000C0895609570958095F7
:10150000909530954095509521953F4F4F4F5F4FA7
:101510006F4F7F4F8F4F9F4F08952F923F924F9263
:101520005F926F927F928F929F92AF92BF92CF9273
:10153000DF92EF92FF920F931F93CF93DF93CDB77C
:10154000DEB7CA1BDB0B0FB6F894DEBF0FBECDBFF4
:1015500009942A88398848885F846E847D848C84C5
:101560009B84AA84B984C884DF80EE80FD800C81CE
:101570001B81AA81B981CE0FD11D0FB6F894DEBFB1
:101580000FBECDBFED0108950F93083090F0982F56
:10159000872F762F652F542F432F322F2227085065
:1015A000F4CF220F331F441F551F661F771F881F5C
:1015B000991F0A95B2F70F91089597FB10F81694AA
:1015C00000080F93083098F00850232F342F452F30
:1015D000562F672F782F892F902DF4CF059497954C
:1015E00087957795679557954795379527950A95E8
:1015F000AAF70F9108952A0D3B1D4C1D5D1D6E1D10
:101600007F1D801F911F08952A193B094C095D0910
:101610006E097F09800B910B08950024A7FD0094AB
:101620002A173005400550056005700580059005B6
:101630000895A29FB001B39FC001A39F700D811DAB
:101640001124911DB29F700D811D1124911D0895CB
:10165000EF920F931F93CF93DF93E80147FD02C0F2
:1016600034E001C034E1042E000C550B57FF03C0D9
:10167000519541955109E32E022F242FAE010E946E
:10168000480BCE01DF91CF911F910F91EF900895FC
:10169000A9E0B0E0EEE4FBE00C94930A6A01122F9B
:1016A000B02E2BE3201720F0FF24F394F00E02C09D
:1016B0002CE3F22E0F2D27E0AE014F5F5F4F0E940B
:1016C000A20CBC014981842F8970813031F0E1FC8A
:1016D00006C0E0FE06C090E205C09DE203C09BE2AA
:1016E00001C090E05E2D507143FF3CC0911102C0DB
:1016F00083E001C084E0811718F4212F281B01C06A
:1017000020E051110BC0F601822F30E2882319F03E
:1017100031938150FBCFC20ED11C20E0992329F0D8
:10172000D6019C93F60131966F01C6010396E2FE45
:101730000AC03EE4D6013C9341E411964C931197C4
:1017400012963C9306C03EE6F601308341E64183A3
:101750003283FC01322F40E2332309F442C041932B
:101760003150FACF42FF44C0911102C083E001C062
:1017700084E0811718F4212F281B01C020E05111AB
:101780000BC0F601822F30E2882319F0319381508B
:10179000FBCFC20ED11C20E0992329F0D6019C93E7
:1017A000F60131966F01C6010396E2FE0BC039E4E3
:1017B000D6013C933EE411963C93119736E4129681
:1017C0003C9307C039E6F60130833EE6318336E6C6
:1017D0003283FC01322F40E2332319F04193315020
:1017E000FBCFFC01E20FF11D10828EEF9FEFA6C030
:1017F00021E030E0911102C020E030E0161617061B
:101800001CF4FB01319602C0E1E0F0E02E0F3F1F17
:10181000BB2021F0EB2DF0E0319602C0E0E0F0E0DB
:101820002E0F3F1FE12FF0E02E173F071CF4121B75
:10183000212F01C020E08E2D887159F4F601822FEE
:1018400030E2882319F031938150FBCFC20ED11CB6
:1018500020E0992329F0D6019C93F60131966F017F
:1018600051110BC0F601822F90E3882319F0919358
:101870008150FBCFC20ED11C20E00F2D060F9A81A4
:10188000342F307144FF03C0913309F40150101616
:1018900024F4093018F008E001C001E0AB0177FF43
:1018A00002C040E050E0FB01E41BF50BA1E0B0E01A
:1018B000AC0FBD1FEA0FFB1F8EE2A82E4B01801A52
:1018C00091080B2D10E01195019511094F3FBFEFC5
:1018D0005B0721F4D601AC9211966D016417750770
:1018E0002CF08416950614F4818101C080E34150E8
:1018F00051093196D60111967D014017510724F008
:10190000D6018C936701E2CF6417750739F49633DB
:1019100020F4953319F4311101C081E3F60180837D
:10192000F701822F90E2882319F091938150FBCF29
:10193000F701E20FF11D108280E090E02996ECE0C3
:101940000C94AF0A283008F027E03327DA01990F0A
:10195000311D87FD916000966105710539F4326093
:101960002E5F3D9330E32A95E1F708959F3F30F0D5
:1019700080387105610509F03C5F3C5F3D93913013
:1019800008F08068911DDF93CF931F930F93FF9210
:10199000EF92192F987F9695E92F96959695E90FD6
:1019A000FF27EA5CFE4F99273327EE24FF24A70187
:1019B000E70105900894079428F4360FE71EF81EF7
:1019C000491F511D660F771F881F991F0694A1F7A5
:1019D0000590079428F4E70EF81E491F561FC11DF5
:1019E000770F881F991F661F0694A1F7059007942B
:1019F00028F4F80E491F561FC71FD11D880F991FC5
:101A0000661F771F0694A1F70590079420F4490FED
:101A1000561FC71FD81F990F661F771F881F069470
:101A2000A9F784911095177041F0D695C7955795F1
:101A30004795F794E7941A95C1F7ECEDF0E06894B8
:101A40001590159135916591959105907FE273956B
:101A5000E118F10A430B560BC90BD009C0F7E10C92
:101A6000F11E431F561FC91FD01D7EF4703311F4A1
:101A70008A95E6CFE894015030F0080F0AF4002769
:101A8000021708F4202F2395022F7A3328F079E3E8
:101A90007D932A95E9F710C07D932A9589F60694DF
:101AA00097956795379517951794E118F10A430BA9
:101AB000560BC90BD00998F023957E9173957A3314
:101AC00008F070E37C932013B8F77E9170617D93EA
:101AD00030F0839571E37D9370E32A95E1F711244B
:101AE000EF90FF900F911F91CF91DF91992787FD84
:081AF00090950895F894FFCFD2
:101AF80076780060600000003636000008080808A4
:101B0800083E5149453E00427F40004261514946E6
:101B18002141454B311814127F1027454545393C62
:101B28004A49493001710905033649494936064988
:101B380049291E54656D70657261747572653A0045
:101B480020430050726573737572653A00206850BF
:021B580061002A
:00000001FF
