S0120000627574746F6E486F6C642E73726563EF
S11300000C9434000C943E000C943E000C943E007E
S11300100C943E000C943E000C943E000C943E0064
S11300200C943E000C943E000C943E000C943E0054
S11300300C943E000C943E000C943E000C943E0044
S11300400C943E000C943E000C943E000C943E0034
S11300500C943E000C943E000C943E000C943E0024
S11300600C943E000C943E0011241FBECFEFD8E048
S1130070DEBFCDBF0E9440000C947C000C940000B5
S11300808AB18B7F8AB98BB184608BB987B1876061
S113009087B980E090E04A99FECF07C0EFE3FCE91E
S11300A03197F1F700C000000A964A9BF7CF883ECB
S11300B0F3E09F07ACF48FE39CE90197F1F700C0EC
S11300C0000098B184E0892788B99FEFE0E7F2E067
S11300D09150E040F040E1F700C0000080E090E083
S11300E0883E23E09207BCF298B182E0892788B960
S10F00F088B18E7F88B9CDCFF894FFCF83
S9030000FC
