:100000000C9434000C943E000C943E000C943E0082
:100010000C943E000C943E000C943E000C943E0068
:100020000C943E000C943E000C943E000C943E0058
:100030000C943E000C943E000C943E000C943E0048
:100040000C943E000C943E000C943E000C943E0038
:100050000C943E000C943E000C943E000C943E0028
:100060000C943E000C943E0011241FBECFEFD8E04C
:10007000DEBFCDBF0E9447000C9467000C940000C7
:1000800095B115B895B18F70982B95B9089584B135
:100090008F6084B98AB18B7F8AB98BB184608BB948
:1000A000C0E001C0C0E04A99FECF4A9BFECF2FEFCF
:1000B00089EF90E0215080409040E1F700C00000BF
:1000C0008C2F0E944000CF5FC03160F7ECCFF894D6
:0200D000FFCF60
:00000001FF
