S01B000077617463685F74656D705F70726573737572652E7372656305
S11300000C9434000C9451000C9451000C94510045
S11300100C9451000C9451000C9451000C94510018
S11300200C9451000C9451000C9451000C94510008
S11300300C9451000C9451000C9451000C945100F8
S11300400C9451000C9451000C9451000C945100E8
S11300500C9451000C9451000C9451000C945100D8
S11300600C9451000C94510011241FBECFEFD8E022
S1130070DEBFCDBF13E0A0E0B1E0EEE4F4E102C0E6
S113008005900D92AA3DB107D9F724E0AAEDB3E09B
S113009001C01D92A63AB207E1F70E94C6040C946F
S11300A0250A0C94000085B18B7F85B98AEF8EBD3B
S11300B00DB407FEFDCF8EB51EBC0DB407FEFDCFFB
S11300C08EB590E0A0E0B0E08093440490934504A2
S11300D0A0934604B093470485B1846085B908951C
S11300E085B18B7F85B98BEF8EBD0DB407FEFDCF37
S11300F08EB51EBC0DB407FEFDCF8EB590E0A0E01A
S1130100B0E080931C0490931D04A0931E04B0934C
S11301101F0485B1846085B9089585B18B7F85B945
S11301208CEF8EBD0DB407FEFDCF8EB51EBC0DB495
S113013007FEFDCF8EB590E0A0E0B0E08093FA0317
S11301409093FB03A093FC03B093FD0385B18460FB
S113015085B908950E9453000E9470000E948D008A
S11301608091440490914504A0914604B0914704C1
S1130170AC01BD01032E3CE0440F551F661F771FE1
S11301803A95D1F7302D80911C0490911D04A091D3
S11301901E04B0911F04880F991FAA1FBB1F880F4C
S11301A0991FAA1FBB1F880F991FAA1FBB1F880F67
S11301B0991FAA1FBB1F842B952BA62BB72B4091ED
S11301C0FA035091FB036091FC037091FD03689462
S11301D013F876956795579547951694D1F7842B20
S11301E0952BA62BB72B8093DE039093DF03A0936C
S11301F0E003B093E103089585B18B7F85B984E76B
S11302008EBD0DB407FEFDCF8EB587E28EBD0DB455
S113021007FEFDCF8EB585B1846085B985B18B7F2E
S113022085B984EF8EBD0DB407FEFDCF8EB51EBC1F
S11302300DB407FEFDCF8EB585B1846085B90895F0
S11302404F925F926F927F928F929F92AF92BF92E2
S1130250CF92DF92EF92FF926091DE037091DF0301
S11302608091E0039091E1030E94DE086B017C0120
S11302706093EF037093F0038093F1039093F20380
S113028020E030E040E858E30E9490094B015C0113
S11302906091E8037091E90380E090E00E94DE0839
S11302A020E030E040E85AE30E9490099B01AC0151
S11302B0C501B4010E94C4074B015C016091F503C0
S11302C07091F603072E000C880B990B0E94E0082E
S11302D02B013C019B01AC01C501B4010E949009B2
S11302E04B015C0160930204709303048093040443
S11302F09093050420E030E040E057E3C701B601E5
S11303000E9490096B017C0120E030E040E059E359
S1130310C301B2010E9490099B01AC01C701B6015F
S11303200E94C4076B017C01609190047091910458
S1130330072E000C880B990B0E94E008A701960178
S11303400E9490099B01AC01609352047093530482
S11303508093540490935504C501B4010E94C507C9
S1130360609398047093990480939A0490939B04E7
S113037020E030E040EA55E40E943608609310041F
S11303807093110480931204909313048BE691E00C
S11303900E94080760911004709111048091120466
S11303A09091130442E00E94300789E891E00E9492
S11303B0080761E286E00E941205609110047091C2
S11303C0110480911204909113040E943A068DE85E
S11303D091E00E94C005FF90EF90DF90CF90BF9016
S11303E0AF909F908F907F906F905F904F90089503
S11303F00E94FC0085B18B7F85B987EF8EBD0DB45B
S113040007FEFDCF8EB51EBC0DB407FEFDCF8EB525
S113041090E0A0E0B0E08093FE039093FF03A093EC
S11304200004B09301041EBC0DB407FEFDCF8EB5CD
S113043090E0A0E0B0E080930C0490930D04A093AE
S11304400E04B0930F041EBC0DB407FEFDCF8EB591
S113045090E0A0E0B0E08093060490930704A0939A
S11304600804B093090485B1846085B98091FE03C2
S11304709091FF03A0910004B0910104AC01BD016F
S1130480032E3CE0440F551F661F771F3A95D1F7A2
S1130490302D80910C0490910D04A0910E04B09124
S11304A00F04880F991FAA1FBB1F880F991FAA1F2B
S11304B0BB1F880F991FAA1FBB1F880F991FAA1F54
S11304C0BB1F842B952BA62BB72B40910604509170
S11304D007046091080470910904689413F87695F0
S11304E06795579547951694D1F7842B952BA62B92
S11304F0B72B8093DA039093DB03A093DC03B093D0
S1130500DD03089585B18B7F85B988E88EBD0DB470
S113051007FEFDCF8EB51EBC0DB407FEFDCF8EB514
S113052090E09093E5038093E4031EBC0DB407FEB2
S1130530FDCF8EB590E09093600480935F041EBC61
S11305400DB407FEFDCF8EB590E090934D048093DB
S11305504C041EBC0DB407FEFDCF8EB590E0909305
S11305606604809365041EBC0DB407FEFDCF8EB5F2
S113057090E09093F8038093F7031EBC0DB407FE3C
S1130580FDCF8EB590E090939504809394041EBCA7
S11305900DB407FEFDCF8EB590E090938D0480934B
S11305A08C041EBC0DB407FEFDCF8EB590E0909375
S11305B06804809367041EBC0DB407FEFDCF8EB59E
S11305C090E090935704809356041EBC0DB407FE2C
S11305D0FDCF8EB590E090934F0480934E041EBCE3
S11305E00DB407FEFDCF8EB590E09093EE0380939B
S11305F0ED031EBC0DB407FEFDCF8EB590E09093C5
S11306001B0480931A041EBC0DB407FEFDCF8EB5E7
S113061090E09093EC038093EB031EBC0DB407FEB3
S1130620FDCF8EB590E090930B0480930A041EBC1A
S11306300DB407FEFDCF8EB590E090936B048093CC
S11306406A041EBC0DB407FEFDCF8EB590E09093F6
S11306509704809396041EBC0DB407FEFDCF8EB59F
S113066090E09093F4038093F3031EBC0DB407FE53
S1130670FDCF8EB590E090934B0480934A041EBC4A
S11306800DB407FEFDCF8EB590E0909342048093A5
S113069041041EBC0DB407FEFDCF8EB590E09093CF
S11306A09D0480939C041EBC0DB407FEFDCF8EB543
S11306B090E090935104809350041EBC0DB407FE47
S11306C0FDCF8EB590E090936204809361041EBCCC
S11306D00DB407FEFDCF8EB590E090936404809333
S11306E063041EBC0DB407FEFDCF8EB590E090935D
S11306F015048093140440E050E050915F0420916D
S1130700E4033091E503242B352B3093E903209344
S1130710E8035091650420914C0430914D04242B3E
S1130720352B3093F6032093F503509194042091D4
S1130730F7033091F803242B352B30939104209345
S1130740900440E050E05091670420918C04309173
S11307508D04242B352B309359042093580440E006
S113076050E050914E042091560430915704242BAC
S1130770352B309317042093160440E050E0509139
S11307801A042091ED033091EE03242B352B309382
S11307905B0420935A0440E050E050910A042091F5
S11307A0EB033091EC03242B352B30931904209365
S11307B0180440E050E05091960420916A0430916E
S11307C06B04242B352B309349042093480440E0D8
S11307D050E050914A042091F3033091F403242B08
S11307E0352B309393042093920440E050E05091D1
S11307F09C042091410430914204242B352B3093E6
S1130800E7032093E60340E050E050916104209117
S1130810500430915104242B352B30935D042093E4
S11308205C04982F88272091630430916404822B00
S1130830932B90938F0480938E0408950895982F9A
S113084092959F70990F292F220F220F920F8F706C
S1130850890F08952F923F924F925F926F927F92E9
S11308608F929F92AF92BF92CF92DF92EF92FF92BC
S11308700F931F93CF93DF936C015B014A01E9014E
S11308800E949C0480ED0E94A80480E00E94A804B9
S11308900E949C0481ED0E94A8040E94BC04282E9E
S11308A00E94BC04382E0E94BC04482E0E94BC0442
S11308B00E94BC04582E0E94BC04682E0E94B204FC
S11308C0782E0E94A404822D8F770E941F04F401C5
S11308D08083832D0E941F04F5018083842D8F73F0
S11308E00E941F04F6018083852D0E941F048883C3
S11308F0862D8F710E941F04F8018083872D0E942A
S11309001F04F7018083DF91CF911F910F91FF9016
S1130910EF90DF90CF90BF90AF909F908F907F909B
S11309206F905F904F903F902F9008951092B90070
S113093088E48093B800089584EA8093BC00809191
S1130940BC008823E4F7089584E98093BC000895EB
S11309508093BB0084E88093BC008091BC00882312
S1130960E4F7089584E88093BC008091BC00882358
S1130970E4F78091BB00089584EC8093BC008091DF
S1130980BC008823E4F78091BB0008950E9496047C
S11309900E94E0060E94F5060E943F050E94290578
S11309A00F2EFEE5EF2EF4E0FF2EF02D00E214E012
S11309B023E434E049EF53E06AEE73E089E694E01F
S11309C00E942A040E94CA060E94D3062FEF83EDD8
S11309D090E3215080409040E1F700C00000E0CF58
S11309E0CF93C82F0E949C0488E70E94A80480E04B
S11309F00E94A8048C2F0E94A8040E94A404CF91F2
S1130A000895CF93C82F0E949C0488E70E94A804ED
S1130A1080E40E94A8048C2F0E94A8040E94A404CD
S1130A20CF910895CF93C62F90919E049093E303A2
S1130A308093E20380550E94F0048C2F8F700E94F3
S1130A40F0048C2F82958F70805F0E94F004CF9108
S1130A500895CF93DF93D0E00DC060E08D2F0E9406
S1130A601205C0E004C080E00E940105CF5FCC23E2
S1130A70D4F7DF5FD83088F3DF91CF9108952FEF5B
S1130A8081EE94E0215080409040E1F700C00000E6
S1130A908EEA0E94F00480E20E94F00480E00E944A
S1130AA0F00480EB0E94F00488EC0E94F00480E0E3
S1130AB00E94F00480E10E94F00480E40E94F004AB
S1130AC081E80E94F0048FE70E94F00481EA0E940A
S1130AD0F00486EA0E94F00488EA0E94F0048FE39E
S1130AE00E94F00484EA0E94F00483ED0E94F00462
S1130AF080E00E94F00485ED0E94F00480E80E94EA
S1130B00F00489ED0E94F00481EF0E94F0048AED64
S1130B100E94F00482E10E94F0048BED0E94F00434
S1130B2080E40E94F0048DE80E94F00484E10E94B5
S1130B30F0048FEA0E94F0040E9429050895CF93DF
S1130B40DF93D0EED80FDF35C0F4C0E011C08D2F95
S1130B5090E0FC01EE0FFF1FEE0FFF1FE80FF91FDF
S1130B60E850FE4FEC0FF11D80810E940105CF5F1C
S1130B70C53068F380E00E940105DF91CF910895AC
S1130B80CF93DF93EC0103C021960E949F058881D7
S1130B908111FACFDF91CF910895CF93DF93D0EDF8
S1130BA0D80FDA3058F08A3331F08D3231F08E328A
S1130BB0C9F4DCE003C0DAE001C0DBE0C0E010C04F
S1130BC0ED2FF0E0EE0FFF1FEE0FFF1FEE0FFF1FE4
S1130BD0E057FE4FEC0FF11D80810E940105CF5FAD
S1130BE0C83070F3DF91CF910895CF93DF93D82F5E
S1130BF0CDEC8C9FC12D1124C695C695C69580E376
S1130C008C0F0E94CD05CC0F8C2F880F880FC80F36
S1130C108D2F8C1B805D0E94CD05DF91CF910895AF
S1130C20CF93DF93D62FC42F0E94F5058AE30E9449
S1130C30CD058D2F0E94F5058AE30E94CD058C2FEA
S1130C400E94F505DF91CF910895CF93DF93D62FBE
S1130C50C42F0E94F5058DE20E94CD058D2F0E94C0
S1130C60F5058DE20E94CD058C2F0E94F505DF91DC
S1130C70CF910895CF92DF92EF92FF920F931F933B
S1130C80CF93DF936B017C0120E030E0A9010E9447
S1130C90310888233CF48DE20E94CD05F7FAF094E4
S1130CA0F7F8F094C701B6010E94A808EB01072EDB
S1130CB0000C880B990B0E94E0089B01AC01C70152
S1130CC0B6010E94C40720E030E048EC52E40E94E0
S1130CD0900920E030E040E05FE30E94C5070E94F5
S1130CE0A8087B01C436D1054CF0CE0164E670E05F
S1130CF00E94FD0980E3860F0E94CD05CA30D1050C
S1130D006CF02AE030E0CE01B9010E94FD09CB016C
S1130D10B9010E94FD09805D0E94CD050AE010E042
S1130D20CE01B8010E94FD09805D0E94CD058EE2CE
S1130D300E94CD05C701B8010E94FD09C82F80E3B8
S1130D40860F0E94CD0580E38C0F0E94CD05DF91B4
S1130D50CF911F910F91FF90EF90DF90CF90089566
S1130D606AE182E00E9412054091F9036091EA036E
S1130D70809169040E94100608956AE184E00E944B
S1130D80120540915E0460912004809143040E9406
S1130D90250608950E9492070E94AB070E94B006A0
S1130DA00E94BD0608950E94FC000E94AA000E94B1
S1130DB020010E9482020E94F8010E941E040895EC
S1130DC084B18C6284B984B18F7E84B985B1846026
S1130DD085B98AB188608AB981E58CBD8FE39CE9C5
S1130DE00197F1F700C0000008951092C50087E64E
S1130DF08093C40088E08093C10086E08093C200A1
S1130E0008959091C00095FFFCCF8093C60008958B
S1130E10CF93DF93EC0103C021960E9401078881E0
S1130E208111FACFDF91CF910895CF93DF93D82F1B
S1130E30CDEC8C9FC12D1124C695C695C69580E333
S1130E408C0F0E940107CC0F8C2F880F880FC80FBE
S1130E508D2F8C1B805D0E940107DF91CF91089537
S1130E608F929F92AF92BF92CF92DF92EF92FF92B6
S1130E70CF93DF936B017C01D42F0E94A8084B0110
S1130E805C01072E000C880B990B0E94E0089B0163
S1130E90AC01C701B6010E94C4076B017C01882D17
S1130EA00E9415078EE20E94010720E030E0A901AC
S1130EB0C701B6010E943108882324F4F7FAF0949C
S1130EC0F7F8F094C0E021C020E030E040E251E4C3
S1130ED0C701B6010E9490094B015C010E94A80859
S1130EE06B017C0180E38C0D0E940107B601DD0CCF
S1130EF0880B990B0E94E0089B01AC01C501B40169
S1130F000E94C4076B017C01CF5FCD17E8F2DF912B
S1130F10CF91FF90EF90DF90CF90BF90AF909F90D4
S1130F208F900895809169040E94150788ED93E0DD
S1130F300E9408078091EA030E94150788ED93E058
S1130F400E9408078091F9030E94150786E591E045
S1130F500E9408070895809143040E94150788EDB4
S1130F6093E00E940807809120040E94150788EDF1
S1130F7093E00E94080780915E040E94150786E5AD
S1130F8091E00E94080708955058BB27AA270E94A1
S1130F90DC070C9456090E94480938F00E944F0956
S1130FA020F039F49F3F19F426F40C9445090EF40B
S1130FB0E095E7FB0C943F09E92F0E94670958F379
S1130FC0BA17620773078407950720F079F4A6F52A
S1130FD00C9489090EF4E0950B2EBA2FA02D0B0169
S1130FE0B90190010C01CA01A0011124FF27591B6A
S1130FF099F0593F50F4503E68F11A16F040A22F70
S1131000232F342F4427585FF3CF469537952795E0
S1131010A795F0405395C9F77EF41F16BA0B620BDF
S1131020730B840BBAF09150A1F0FF0FBB1F661F26
S1131030771F881FC2F70EC0BA0F621F731F841F69
S113104048F4879577956795B795F7959E3F08F08F
S1131050B0CF9395880F08F09927EE0F9795879551
S113106008950E941B0908F481E008950E944A082B
S11310700C9456090E944F0958F00E94480940F008
S113108029F45F3F29F00C943F0951110C948A090B
S11310900C9445090E94670968F39923B1F3552319
S11310A091F3951B550BBB27AA2762177307840777
S11310B038F09F5F5F4F220F331F441FAA1FA9F30D
S11310C035D00E2E3AF0E0E832D091505040E695FB
S11310D0001CCAF72BD0FE2F29D0660F771F881F5C
S11310E0BB1F261737074807AB07B0E809F0BB0B4F
S11310F0802DBF01FF2793585F4F3AF09E3F510563
S113110078F00C943F090C948A095F3FE4F3983E0D
S1131110D4F3869577956795B795F7959F5FC9F74B
S1131120880F911D9695879597F90895E1E0660FCC
S1131130771F881FBB1F621773078407BA0720F045
S1131140621B730B840BBA0BEE1F88F7E0950895AE
S11311500E94AF086894B1110C948A0908950E9402
S11311606F0988F09F5798F0B92F9927B751B0F0BD
S1131170E1F0660F771F881F991F1AF0BA95C9F717
S113118014C0B13091F00E948909B1E008950C9423
S11311908909672F782F8827B85F39F0B93FCCF3D6
S11311A0869577956795B395D9F73EF49095809594
S11311B0709561957F4F8F4F9F4F0895E89409C0B4
S11311C097FB3EF490958095709561957F4F8F4F76
S11311D09F4F9923A9F0F92F96E9BB279395F6958C
S11311E0879577956795B795F111F8CFFAF4BB0F0A
S11311F011F460FF1BC06F5F7F4F8F4F9F4F16C06E
S1131200882311F096E911C0772321F09EE8872FF7
S1131210762F05C0662371F096E8862F70E060E0B3
S11312202AF09A95660F771F881FDAF7880F96952C
S1131230879597F90895990F0008550FAA0BE0E8D0
S1131240FEEF16161706E807F907C0F01216130684
S1131250E407F50798F0621B730B840B950B39F4C4
S11312600A2661F0232B242B252B21F408950A262A
S113127009F4A140A6958FEF811D811D089597F96A
S11312809F6780E870E060E008959FEF80EC089528
S113129000240A9416161706180609060895002451
S11312A00A9412161306140605060895092E0394CB
S11312B0000C11F4882352F0BB0F40F4BF2B11F43F
S11312C060FF04C06F5F7F4F8F4F9F4F089557FD9E
S11312D09058440F551F59F05F3F71F04795880FA0
S11312E097FB991F61F09F3F79F087950895121637
S11312F013061406551FF2CF4695F1DF08C01616E3
S113130017061806991FF1CF869571056105089493
S11313100895E894BB2766277727CB0197F90895AA
S11313200E94A3090C9456090E94480938F00E94AF
S11313304F0920F0952311F00C943F090C944509B2
S113134011240C948A090E94670970F3959FC1F3D4
S1131350950F50E0551F629FF001729FBB27F00D5F
S1131360B11D639FAA27F00DB11DAA1F649F6627B4
S1131370B00DA11D661F829F2227B00DA11D621F03
S1131380739FB00DA11D621F839FA00D611D221FBD
S1131390749F3327A00D611D231F849F600D211DA1
S11313A0822F762F6A2F11249F5750409AF0F1F024
S11313B088234AF0EE0FFF1FBB1F661F771F881F8D
S11313C091505040A9F79E3F510580F00C943F097D
S11313D00C948A095F3FE4F3983ED4F3869577959D
S11313E06795B795F795E7959F5FC1F7FE2B880F33
S11313F0911D9695879597F9089597FB072E16F4F6
S1131400009407D077FD09D00E94110A07FC05D08B
S11314103EF4909581959F4F0895709561957F4F07
S11314200895AA1BBB1B51E107C0AA1FBB1FA61727
S1131430B70710F0A61BB70B881F991F5A95A9F779
S111144080959095BC01CD010895F894FFCFDE
S113144E0A41746D6F73547261636B20627920412B
S113145E6E656573204B6F6B6164616E2076322E00
S113146E300041746D6F73547261636B2076322E4B
S113147E3000427920416E656573204B6F6B616459
S113148E616E00436869702049443A2000646967BC
S113149E5F54313A20000D0A006469675F54323A92
S11314AE20006469675F54333A20000A5265616C08
S11314BE2074696D6520726F6F6D2074656D706533
S11314CE7261747572653A200020430A002043004D
S11314DE3E5149453E00000000427F40000000009E
S11314EE42615149460000002141454B3100000044
S11314FE1814127F100000002745454539000000DE
S113150E3C4A4949300000000171090503000000FE
S113151E3649494936000000064949291E00000093
S113152E0036360000000000080808080800000015
S113153E0000001818000000000000000000005F0A
S113154E00000007000700147F147F14242A7F2A4A
S113155E1223130864623649552250000503000015
S113156E001C2241000041221C0014083E081408ED
S113157E083E0808005030000008080808080060FB
S113158E60000020100804023E5149453E00427F8F
S113159E400042615149462141454B311814127F96
S11315AE1027454545393C4A49493001710905031F
S11315BE3649494936064949291E00363600000087
S11315CE5636000008142241001414141414004159
S11315DE2214080201510906324979413E7E111145
S11315EE117E7F494949363E414141227F41412284
S11315FE1C7F494949417F090909013E4149497AFC
S113160E7F0808087F00417F41002040413F017F51
S113161E081422417F404040407F020C027F7F0429
S113162E08107F3E4141413E7F090909063E415162
S113163E215E7F09192946464949493101017F0135
S113164E013F4040403F1F2040201F3F4038403F55
S113165E6314081463070870080761514945430071
S113166E7F41410002040810200041417F00040222
S113167E0102044040404040000102040020545442
S113168E54787F48444438384444442038444448C9
S113169E7F3854545418087E0901020C5252523E9B
S11316AE7F0804047800447D40002040443D007FC0
S11316BE1028440000417F40007C041804787C0804
S11316CE04047838444444387C141414080814145C
S11316DE187C7C080404084854545420043F4440A5
S11316EE203C4040207C1C2040201C3C4030403C90
S11316FE44281028440C5050503C4464544C44002C
S113170E0836410000007F0000004136080008083A
S10D171E2A1C08081C2A08083A00D7
S9030000FC
