S00A000051362E7372656393
S11300000C9434000C946F000C9446000C9446003D
S11300100C9446000C9446000C9446000C94460044
S11300200C9446000C9446000C9446000C94460034
S11300300C9446000C9446000C9446000C94460024
S11300400C9446000C9446000C9446000C94460014
S11300500C9446000C9446000C9446000C94460004
S11300600C9446000C94460011241FBECFEFD8E038
S1130070DEBFCDBF21E0A0E0B1E001C01D92A13000
S1130080B207E1F70E948F000C94CD000C9400009D
S113009020E030E00CC016BC14BC85B5856085BD7D
S11300A085B3816085BBA89BFECF2F5F3F4F22366F
S11300B082E0380784F3089520E030E00CC016BCD9
S11300C014BC85B5856085BD85B3816085BBA89B5F
S11300D0FECF2F5F3F4F273B31058CF308951F92CE
S11300E00F920FB60F9211248F9381E08093000139
S11300F08F910F900FBE0F901F90189510920001D2
S113010085B1846085B985B1806285B90E945C003F
S113011085B18B7F85B985B18F7D85B9089584B10B
S11301208C6384B98AB18B7F8AB98BB184608BB9B3
S11301308DB381608DBBE9E6F0E0808182608083CD
S113014080818E7F8083789485B1806285B90E9496
S1130150480085B18F7D85B98091000181110E948D
S11301607E0085B1806185B90E945C0085B18F7E77
S113017085B98091000181110E947E0085B188605B
S113018085B90E94480085B1877F85B980910001B7
S11101908823D1F20E947E00D7CFF894FFCFCF
S9030000FC
