:100000000C9434000C9449000C9449000C94490061
:100010000C9449000C9449000C9449000C9449003C
:100020000C9449000C9449000C9449000C9449002C
:100030000C9449000C9449000C9449000C9449001C
:100040000C9449000C9449000C9449000C9449000C
:100050000C9449000C9449000C9449000C944900FC
:100060000C9449000C94490011241FBECFEFD8E036
:10007000DEBFCDBF11E0A0E0B1E0ECE7F4E002C0EC
:1000800005900D92A836B107D9F70E94C4000C94D0
:100090003C020C940000982F92959F70990F292F85
:1000A000220F220F920F8F70890F0895BF92CF9267
:1000B000DF92EF92FF920F931F93CF93DF93EC01A8
:1000C0007B016A010E949A0080ED0E94A60080E0F8
:1000D0000E94A6000E949A0081ED0E94A6000E9444
:1000E000BA00B82E0E94BA00082F0E94B000182F44
:1000F0000E94A2008B2D8F770E944B00F601808317
:10010000802F0E944B00F7018083812F8F730E9404
:100110004B008883DF91CF911F910F91FF90EF905B
:10012000DF90CF90BF9008951092B90088E480933B
:10013000B800089584EA8093BC008091BC008823B5
:10014000E4F7089584E98093BC0008958093BB0090
:1001500084E88093BC008091BC008823E4F7089574
:1001600084E88093BC008091BC008823E4F78091F0
:10017000BB00089584EC8093BC008091BC00882370
:10018000E4F78091BB000895CF93DF9300D01F92D6
:10019000CDB7DEB70E9401020E9494000E94510177
:1001A0000E943B0180E091E00E941402AE014D5F8D
:1001B0005F4FBE016E5F7F4FCE0101960E945600D9
:1001C00089810E9421028EE091E00E9414028A81BE
:1001D0000E9421028EE091E00E9414028B810E9415
:1001E00021028BE091E00E94140269E183E00E9409
:1001F0002A014B816A8189810E94EC012FEF83EDF6
:1002000090E3215080409040E1F700C00000CECF45
:10021000CF93C82F0E949A0088E70E94A60080E032
:100220000E94A6008C2F0E94A6000E94A200CF91DF
:100230000895CF93C82F0E949A0088E70E94A600D5
:1002400080E40E94A6008C2F0E94A6000E94A200BB
:10025000CF910895CF93C62F80550E9408018C2F0F
:100260008F700E9408018C2F82958F70805F0E9492
:100270000801CF910895CF93DF93D0E00DC060E0E7
:100280008D2F0E942A01C0E004C080E00E94190165
:10029000CF5FCC23D4F7DF5FD83088F3DF91CF91E5
:1002A00008952FEF81EE94E0215080409040E1F7D7
:1002B00000C000008EEA0E94080180E20E9408014E
:1002C00080E00E94080180EB0E94080188EC0E94F7
:1002D000080180E00E94080180E10E94080180E49A
:1002E0000E94080181E80E9408018FE70E9408012E
:1002F00081EA0E94080186EA0E94080188EA0E94B9
:1003000008018FE30E94080184EA0E94080183ED3E
:100310000E94080180E00E94080185ED0E9408010A
:1003200080E80E94080189ED0E94080181EF0E9487
:1003300008018AED0E94080182E10E9408018BED0C
:100340000E94080180E40E9408018DE80E940801D3
:1003500084E10E9408018FEA0E9408010E943B018B
:100360000895CF93DF93D0EDD80FDA3018F08A33A9
:10037000A9F4DAE0C0E010C0ED2FF0E0EE0FFF1FAF
:10038000EE0FFF1FEE0FFF1FE05FFE4FEC0FF11DA2
:1003900080810E941901CF5FC83070F3DF91CF9147
:1003A0000895CF93DF93D82FCDEC8C9FC12D1124CE
:1003B000C695C695C69580E38C0F0E94B101CC0FFF
:1003C0008C2F880F880FC80F8D2F8C1B805D0E948B
:1003D000B101DF91CF910895CF93DF93D62FC42F32
:1003E0000E94D1018AE30E94B1018D2F0E94D101A8
:1003F0008AE30E94B1018C2F0E94D101DF91CF913D
:1004000008951092C50087E68093C40088E0809329
:10041000C10086E08093C20008959091C00095FFCE
:10042000FCCF8093C6000895CF93DF93EC0103C007
:1004300021960E940D0288818111FACFDF91CF9120
:100440000895CF93DF93D82FCDEC8C9FC12D11242D
:10045000C695C695C69580E38C0F0E940D02CC0F01
:100460008C2F880F880FC80F8D2F8C1B805D0E94EA
:0C0470000D02DF91CF910895F894FFCFAA
:10047C0044533133303720544553540D0A003A005D
:10048C003E5149453E00000000427F400000000004
:10049C0042615149460000002141454B31000000AA
:1004AC001814127F10000000274545453900000044
:1004BC003C4A494930000000017109050300000065
:1004CC003649494936000000064949291E000000FA
:0804DC000036360000000000AC
:00000001FF
