:100000000C9434000C9449000C9449000C94490061
:100010000C9449000C9449000C9449000C9449003C
:100020000C9449000C9449000C9449000C9449002C
:100030000C9449000C9449000C9449000C9449001C
:100040000C9449000C9449000C9449000C9449000C
:100050000C9449000C9449000C9449000C944900FC
:100060000C9449000C94490011241FBECFEFD8E036
:10007000DEBFCDBF11E0A0E0B1E0EEECF2E002C0E7
:1000800005900D92A030B107D9F70E94FC000C94A6
:1000900065010C9400008BB180648BB985E08A9572
:1000A000F1F700008BB18F7B8BB987EC90E0019763
:1000B000F1F700C0000008959BB1937C9BB983FFCA
:1000C00003C09BB194609BB982FF03C09BB1986051
:1000D0009BB981FF03C09BB190619BB980FF03C0B6
:1000E0008BB180628BB90E944B000895CF93C82FCB
:1000F000613021F48BB180688BB903C08BB18F77ED
:100100008BB98C2F82958F700E945C008C2F8F7022
:100110000E945C00CF910895CF93C82F60E00E94A9
:100120007600C150C23030F48FE39FE10197F1F7C0
:1001300000C00000CF91089561E00E94760008950C
:10014000882311F090E401C090E0862F8F70890F12
:1001500080680E948C00089581E00E948C000895C0
:100160008AB180688AB98AB180648AB98AB18C639D
:100170008AB92FEF89EF90E0215080409040E1F75D
:1001800000C000008BB18F778BB98BB18F7B8BB99F
:1001900083E00E945C008FE19EE40197F1F700C0CC
:1001A000000083E00E945C0087E592E00197F1F790
:1001B00000C0000083E00E945C0087E592E00197A8
:1001C000F1F700C0000082E00E945C0087E592E049
:1001D0000197F1F700C0000088E20E948C0088E0DF
:1001E0000E948C0081E00E948C0086E00E948C00BE
:1001F0008CE00E948C0008950E944B010E94B00088
:100200000E942E0160E080E00E94A00000E010E06B
:1002100005C001E010E002C001E010E00E945E01B4
:10022000C82F0E9443018C2F0E943D010E9447016C
:100230008C2F0E945701CC2361F3CA3069F301155A
:10024000110541F00E94AC0060E080E00E94A00037
:1002500000E010E08C2F0E949C00E0CF84B18C6203
:1002600084B984B18F7E84B985B1846085B981E514
:100270008CBD8CB5837F8CBD08958EBD0DB407FEFB
:10028000FDCF8EB5089585B18B7F85B9089585B171
:10029000846085B908951092C50087E68093C400F4
:1002A00088E18093C10086E08093C2000895909118
:1002B000C00095FFFCCF8093C60008958091C000D8
:0E02C0008823E4F78091C6000895F894FFCFDC
:00000001FF
