S02300006C65645F6D756C74695061747465726E5F70757368427574746F6E2E73726563C9
S11300000C943B000C9445000C9445000C94450062
S11300100C9445000C9445000C9445000C94450048
S11300200C9445000C9445000C9445000C94450038
S11300300C9445000C9445000C9445000C94450028
S11300400C9445000C9445000C9445000C94450018
S11300500C9445000C9445000C9445000C94450008
S11300600C9445000C944500DE02E102E402E70230
S1130070EA02ED02F00211241FBECFEFD8E0DEBF8A
S1130080CDBF0E94BE020C94F9020C94000020E043
S113009030E010C016BC87EF87BD84B5836084BD93
S11300A085B5856085BD85B3826085BBA99BFECF80
S11300B02F5F3F4F2E3131056CF308951F93CF937B
S11300C0DF9388B1D2E08D2788B988B1C8E08C2746
S11300D088B998B180E2892788B99BB181E08927E2
S11300E08BB98BB114E081278BB988B18B7F88B928
S11300F088B18F7E88B98BB18F7E8BB98BB18D7FA0
S11301008BB98BB1877F8BB90E94470088B11827C0
S113011018B998B180E1982798B99BB189278BB910
S11301208BB1D827DBB98BB1C827CBB988B18D7F08
S113013088B988B1877F88B988B18F7D88B98BB138
S11301408E7F8BB98BB18B7F8BB90E9447008BB1AB
S11301501BB888B118B8DF91CF911F91089588B169
S1130160826088B90E94470088B1846088B90E947F
S1130170470088B1886088B90E94470088B18061CF
S113018088B90E94470088B1806288B90E944700FC
S11301908BB180618BB90E9447008BB181608BB9B0
S11301A00E9447008BB182608BB90E9447008BB1DB
S11301B084608BB90E9447008BB188608BB90E9420
S11301C0470088B18D7F88B90E94470088B18B7F32
S11301D088B90E94470088B1877F88B90E94470088
S11301E088B18F7E88B90E94470088B18F7D88B915
S11301F00E9447008BB18F7E8BB90E9447008BB160
S11302008E7F8BB90E9447008BB18D7F8BB90E9482
S113021047008BB18B7F8BB90E9447008BB1877FDE
S11302208BB90E9447008BB11BB888B118B80895E8
S11302308BB188608BB90E9447008BB184608BB905
S11302400E9447008BB182608BB90E9447008BB13A
S113025081608BB90E9447008BB180618BB90E9489
S1130260470088B1806288B90E94470088B18061E4
S113027088B90E94470088B1886088B90E94470005
S113028088B1846088B90E94470088B1826088B9C7
S11302900E9447008BB1877F8BB90E9447008BB1C6
S11302A08B7F8BB90E9447008BB18D7F8BB90E94E5
S11302B047008BB18E7F8BB90E9447008BB18F7E34
S11302C08BB90E94470088B18F7D88B90E9447008E
S11302D088B18F7E88B90E94470088B1877F88B92A
S11302E00E94470088B18B7F88B90E94470088B17B
S11302F08D7F88B90E9447008BB11BB888B118B8AC
S1130300089588B1826088B90E94470088B18D7FC2
S113031088B988B1846088B90E94470088B18B7F0E
S113032088B988B1886088B90E94470088B1877FFE
S113033088B988B1806188B90E94470088B18F7EEE
S113034088B988B1806288B90E94470088B18F7DDE
S113035088B98BB180618BB90E9447008BB18F7EC5
S11303608BB98BB181608BB90E9447008BB18E7FB2
S11303708BB98BB182608BB90E9447008BB18D7FA2
S11303808BB98BB184608BB90E9447008BB18B7F92
S11303908BB98BB188608BB90E9447008BB1877F82
S11303A08BB90E9447008BB184608BB90E944700CF
S11303B08BB18B7F8BB98BB182608BB90E94470064
S11303C08BB18D7F8BB98BB181608BB90E94470053
S11303D08BB18E7F8BB98BB180618BB90E94470042
S11303E08BB18F7E8BB988B1806288B90E94470037
S11303F088B18F7D88B988B1806188B90E9447002F
S113040088B18F7E88B988B1886088B90E94470016
S113041088B1877F88B988B1846088B90E94470011
S113042088B18B7F88B988B1826088B90E944700FF
S113043088B18D7F88B90E944700089588B1826091
S113044088B988B1846088B988B1886088B988B16E
S1130450806188B988B1806288B98BB18F7E8BB98D
S11304608BB18E7F8BB98BB18D7F8BB98BB18B7F29
S11304708BB98BB1877F8BB90E94470088B18D7F80
S113048088B988B18B7F88B988B1877F88B988B1EA
S11304908F7E88B988B18F7D88B98BB180618BB923
S11304A08BB181608BB98BB182608BB98BB1846065
S11304B08BB98BB188608BB90E94470088B118B89A
S11304C08BB11BB8089588B1826088B988B1846003
S11304D088B988B1886088B988B1806188B988B1E1
S11304E0806288B98BB180618BB98BB181608BB923
S11304F08BB182608BB98BB184608BB98BB188600E
S11305008BB90E94470088B18D7F88B988B18B7FF1
S113051088B988B1877F88B988B18F7E88B988B156
S11305208F7D88B98BB18F7E8BB98BB18E7F8BB960
S11305308BB18D7F8BB98BB18B7F8BB98BB1877F5F
S11305408BB90E94470008950E9463020E945E00D6
S11305500E941E020E94AF000E9418010E948101A5
S1130560089587B18E6387B98AB18F618AB984B1DE
S11305708E7F84B985B1816085B908950E94B102E6
S1130580C0E0D0E01899FECF2FEF80E792E0215031
S113059080409040E1F700C00000189BFECF2196F8
S11305A0C830D10514F0C0E0D0E0FE013197E73047
S11305B0F10540F7EC5CFF4F0C94F3020E946302D8
S11305C0E1CF0E945E00DECF0E941E02DBCF0E94BC
S11305D0AF00D8CF0E941801D5CF0E948101D2CF9D
S11305E00E94A402CFCFEE0FFF1F0590F491E02DDF
S10905F00994F894FFCF0A
S9030000FC
